:020000040800F2
:1000000000500020610A0008050A00080B0A0008D9
:10001000110A0008170A00081D0A00080000000065
:10002000000000000000000000000000230A00089B
:100030002F0A0008000000003B0A0008470A0008D9
:10004000A90A0008A90A0008A90A0008A90A0008C4
:10005000A90A0008A90A0008A90A0008A90A0008B4
:10006000A90A0008A90A0008A90A0008A90A0008A4
:10007000A90A0008A90A0008A90A0008A90A000894
:10008000A90A0008A90A0008A90A0008A90A000884
:10009000A90A0008A90A0008A90A0008A90A000874
:1000A000A90A0008A90A0008A90A0008A90A000864
:1000B000A90A0008A90A0008A90A0008A90A000854
:1000C000A90A0008A90A0008A90A0008A90A000844
:1000D000A90A0008A90A0008A90A0008A90A000834
:1000E000A90A0008A90A0008A90A000800000000DF
:1000F0000000000000000000000000000000000000
:0C01000000000000000000005FF808F1A3
:10010C0010B5054C237833B9044B13B10448AFF345
:10011C0000800123237010BD14000020000000009B
:10012C00AC1D000808B5034B1BB103490348AFF3E2
:10013C00008008BD0000000018000020AC1D000865
:10014C0080B582B002AF0C4B1B78184600F038FB20
:10015C004FF6FF7000F0B2FA084B00938023802218
:10016C000021002000F0C6FA41F2883000F0FAFCC1
:10017C0000BFBD4680BD00BF88000020D41D000814
:10018C0080B500AF00F08CFC00F00DF800F086F8A4
:10019C0000F04EF800F0DAF9FFF7D2FF41F28830A8
:1001AC0000F0E0FCF8E780B590B000AF07F1180361
:1001BC0028220021184601F0EBFD3B1D00221A609D
:1001CC005A609A60DA601A610123BB614FF4803384
:1001DC00FB6100233B620123BB6202237B634FF470
:1001EC008033BB634FF4E013FB6307F1180318462D
:1001FC0000F05CFF0346002B01D000F0BDF80F238C
:10020C007B600223BB600023FB604FF480633B6187
:10021C0000237B613B1D0221184601F0C9F90346FE
:10022C00002B01D000F0A8F800BF4037BD4680BDC0
:10023C0080B500AF174B184A1A60164B4FF48272F8
:10024C005A60144B00229A60124B0022DA60114B58
:10025C0000221A610F4B00225A610E4B4FF40072B0
:10026C009A610C4B0822DA610A4B00221A62094B84
:10027C0000225A62074B00229A62064B0A22DA626B
:10028C00044801F0FBFA0346002B01D000F074F88F
:10029C0000BF80BD300000200030014080B588B028
:1002AC0000AF07F1100300221A605A609A60DA60FE
:1002BC002E4B9B692D4A43F0100393612B4B9B698A
:1002CC0003F01003FB60FB68284B9B69274A43F043
:1002DC0020039361254B9B6903F02003BB60BB6833
:1002EC00224B9B69214A43F0040393611F4B9B698A
:1002FC0003F004037B607B681C4B9B691B4A43F037
:10030C0008039361194B9B6903F008033B603B683E
:10031C0000224FF40051164800F0B0FE00224FF4BA
:10032C00E041144800F0AAFE4FF400533B61012356
:10033C007B610023BB610223FB6107F110031946AB
:10034C000B4800F017FD4FF4E0433B6101237B6148
:10035C000023BB610223FB6107F11003194605481A
:10036C0000F008FD00BF2037BD4680BD00100240E4
:10037C0000100140000C014080B400AF72B600BF09
:10038C00FEE780B400AF00BFBD4680BC70470000E4
:10039C0080B500AF00224FF48051074800F06EFE8C
:1003AC00142000F0DFFB01224FF48051024800F0D2
:1003BC0065FE00BF80BD00BF000C014080B582B05F
:1003CC0000AF0346FB7100224FF40051064800F0C9
:1003DC0055FEF91D4FF0FF330122044801F0D2FA0B
:1003EC0000BF0837BD4680BD000C01403000002026
:1003FC0080B582B000AF7860396001224FF40051B3
:10040C00074800F03BFE3B689AB24FF0FF33796827
:10041C00044801F0B7FA00BF0837BD4680BD00BFE5
:10042C00000C01403000002080B584B000AF786033
:10043C007B685A1C7A601B78FB7334E07B685A1C0F
:10044C007A601B78FB72FB7A1846FFF7B7FF7B6864
:10045C005A1C7A601B78BB72BB7A9BB203F0800388
:10046C00BB81BB7A03F07F03BB72BB7A002B08D035
:10047C00BB7A19467868FFF7BBFFBB7A7A681344DE
:10048C007B60BB89002B0ED07B685A1C7A601B7872
:10049C00BB81BB89FF2B02D14FF4FA73BB81BB89A3
:1004AC00184600F05FFBFB7B5A1EFA73002BC5D17C
:1004BC0000BF00BF1037BD4680BD000090B585B0B1
:1004CC0000AF0446084611461A462346FB71034604
:1004DC00BB710B467B7113463B712A20FFF76EFFF5
:1004EC0000233B73174B1A78FB791344DBB27B73F5
:1004FC000023BB73134B1A787B791344DBB2FB7369
:10050C0007F10C0304211846FFF772FF2B20FFF7AD
:10051C0055FF0D4B1A78BB791344DBB27B730A4B36
:10052C001A783B791344DBB2FB7307F10C030421FB
:10053C001846FFF75DFF2C20FFF740FF00BF143774
:10054C00BD4690BD8A0000208B00002080B500AF16
:10055C00FFF717FF00224FF480410B4800F08EFD8F
:10056C00FFF716FF0948FFF75FFF0948FFF75CFF2D
:10057C000848FFF759FF01224FF48041024800F070
:10058C007DFD00BF80BD00BF000C0140DC9D00085C
:10059C00189E0008289E000890B585B000AF044650
:1005AC00084611461A462346FB800346BB800B4681
:1005BC007B8013463B80FB883C4AB2F90020934277
:1005CC006FDABB883A4AB2F90020934269DAFA88AA
:1005DC007B881344354AB2F90020934206DD334B35
:1005EC00B3F900309AB2FB88D31A7B80BA883B8867
:1005FC0013442F4AB2F90020934206DD2C4BB3F979
:10060C0000309AB2BB88D31A3B8000224FF4804151
:10061C00284800F033FDFB88D8B2BB88D9B2FB88E0
:10062C00DAB27B88DBB21344DBB2013BDCB2BB88B1
:10063C00DAB23B88DBB21344DBB2013BDBB22246BD
:10064C00FFF73CFF3B8C1B0A9BB2DBB23B733B8C32
:10065C00DBB27B7301224FF40051164800F00EFD03
:10066C003B88BB8013E07B88FB800AE007F10C0120
:10067C004FF0FF330222104801F084F9FB88013B54
:10068C00FB80FB88002BF1D1BB88013BBB80BB8876
:10069C00002BE8D101224FF48041064800F0EEFC1B
:1006AC0000E000BF1437BD4690BD00BF060000201F
:1006BC0004000020000C01403000002080B584B004
:1006CC0002AF0346FB80094BB3F900309AB2084BDA
:1006DC00B3F9003099B2FB8800930B46002100203F
:1006EC00FFF75AFF00BF0837BD4680BD060000204B
:1006FC000400002090B583B000AF044608461146B4
:10070C001A462346FB800346BB800B467B80134670
:10071C003B80FB88274AB2F90020934242DABB881F
:10072C00254AB2F9002093423CDAFA887B881344BC
:10073C00204AB2F90020934236DCBA883B88134435
:10074C001D4AB2F90020934230DC00224FF4804164
:10075C001A4800F093FCFB88D8B2BB88D9B2FB884E
:10076C00DAB27B88DBB21344DBB2013BDCB2BB8870
:10077C00DAB23B88DBB21344DBB2013BDBB222467C
:10078C00FFF79CFE7B883A8802FB03F35B0019465B
:10079C00B869FFF72DFE01224FF48041074800F0A5
:1007AC006DFC04E000BF02E000BF00E000BF0C37AE
:1007BC00BD4690BD0600002004000020000C014046
:1007CC0080B584B000AF0346FB71FB7903F00303E3
:1007DC00DAB24A4B1A7000224FF48041484800F0BC
:1007EC004DFC3620FFF7EAFD444B1B78032B7BD8DE
:1007FC0001A252F823F000BF1508000851080008A8
:10080C008D080008B90800083E4B1A783D4B5B7800
:10081C001343DAB23B4BDB781343DBB2FB7307F1C8
:10082C000F0301211846FFF7E3FD374B80221A8096
:10083C00364BA0221A80364B00221A70354B002200
:10084C001A7051E02F4B5A782E4B9B781343DAB227
:10085C002C4BDB781343DBB2BB7307F10E03012186
:10086C001846FFF7C5FD284BA0221A80274B802283
:10087C001A80274B00221A70264B00221A7033E084
:10088C00204BDB787B7307F10D0301211846FFF732
:10089C00AFFD1D4B80221A801C4BA0221A801C4BD2
:1008AC0000221A701B4B00221A701DE0154B1A788F
:1008BC00144B9B781343DAB2124BDB781343DBB245
:1008CC003B7307F10C0301211846FFF791FD0E4B0A
:1008DC00A0221A800D4B80221A800D4B00221A7018
:1008EC000C4B00221A7000BF01224FF480410448C7
:1008FC0000F0C4FB00BF1037BD4680BD890000204E
:10090C00000C014000000020060000200400002024
:10091C008A0000208B00002080B485B000AF154BFE
:10092C009B69144A43F001039361124B9B6903F0DA
:10093C000103BB60BB680F4BDB690E4A43F080536D
:10094C00D3610C4BDB6903F080537B607B680A4BF3
:10095C005B68FB60FB6823F0E063FB60FB6843F0C3
:10096C000073FB60044AFB68536000BF1437BD463C
:10097C0080BC7047001002400000014080B588B078
:10098C0000AF786007F1100300221A605A609A6079
:10099C00DA607B681B68154A934223D1144B9B6920
:1009AC00134A43F480539361114B9B6903F48053B6
:1009BC00FB60FB680E4B9B690D4A43F0040393618B
:1009CC000B4B9B6903F00403BB60BB68A0233B612A
:1009DC0002237B610323FB6107F1100319460548D1
:1009EC0000F0C8F900BF2037BD4680BD0030014083
:1009FC00001002400008014080B400AFFEE780B454
:100A0C0000AFFEE780B400AFFEE780B400AFFEE7B6
:100A1C0080B400AFFEE780B400AF00BFBD4680BC21
:100A2C00704780B400AF00BFBD4680BC704780B437
:100A3C0000AF00BFBD4680BC704780B500AF00F072
:100A4C0075F800BF80BD80B400AF00BFBD4680BC50
:100A5C00704700000C480D490D4A002302E0D458A1
:100A6C00C4500433C4188C42F9D30A4A0A4C0023EC
:100A7C0001E013600432A242FBD3FFF7E4FF01F064
:100A8C0063F9FFF77DFB7047000000201400002085
:100A9C006C9E00081400002090000020FEE700006F
:100AAC0080B500AF084B1B68074A43F01003136076
:100ABC00032000F02BF90F2000F008F8FFF72CFFB3
:100ACC000023184680BD00BF0020024080B582B0D4
:100ADC0000AF7860124B1A68124B1B7819464FF412
:100AEC007A73B3FBF1F3B2FBF3F3184600F035F96C
:100AFC000346002B01D001230EE07B680F2B0AD894
:100B0C00002279684FF0FF3000F00BF9064A7B6841
:100B1C001360002300E0012318460837BD4680BD52
:100B2C0008000020100000200C00002080B400AF52
:100B3C00054B1B781A46054B1B681344034A13607C
:100B4C0000BFBD4680BC7047100000208C00002008
:100B5C0080B400AF024B1B681846BD4680BC704782
:100B6C008C00002080B584B000AF7860FFF7F0FFF8
:100B7C00B8607B68FB60FB68B3F1FF3F05D00A4BA4
:100B8C001B781A46FB681344FB6000BFFFF7E0FFBD
:100B9C000246BB68D31AFA689A42F7D800BF00BF66
:100BAC001037BD4680BD00BF1000002080B485B05A
:100BBC0000AF78607B6803F00703FB600C4BDB68CD
:100BCC00BB60BA684FF6FF031340BB60FB681A02A8
:100BDC00BB68134343F0BF6343F40033BB60044A68
:100BEC00BB68D36000BF1437BD4680BC704700BFE4
:100BFC0000ED00E080B400AF044BDB681B0A03F08F
:100C0C0007031846BD4680BC704700BF00ED00E0EE
:100C1C0080B483B000AF03463960FB7197F907309D
:100C2C00002B0ADB3B68DAB20C4997F9073012014A
:100C3C00D2B20B4483F800230AE03B68DAB20849CD
:100C4C00FB7903F00F03043B1201D2B20B441A766A
:100C5C0000BF0C37BD4680BC704700BF00E100E010
:100C6C0000ED00E080B489B000AFF860B9607A6044
:100C7C00FB6803F00703FB61FB69C3F10703042B5B
:100C8C0028BF0423BB61FB690433062B02D9FB6923
:100C9C00033B00E000237B614FF0FF32BB6902FA9B
:100CAC0003F3DA43BB681A407B699A404FF0FF317B
:100CBC007B6901FA03F3D9437B680B401343184655
:100CCC002437BD4680BC704780B582B000AF7860D9
:100CDC007B68013BB3F1807F01D301230FE00A4A0B
:100CEC007B68013B53600F214FF0FF30FFF790FF03
:100CFC00054B00229A60044B07221A600023184609
:100D0C000837BD4680BD00BF10E000E080B582B062
:100D1C0000AF78607868FFF749FF00BF0837BD4621
:100D2C0080BD80B586B000AF0346B9607A60FB73B6
:100D3C0000237B61FFF75EFF78617A68B968786998
:100D4C00FFF790FF024697F90F3011461846FFF750
:100D5C005FFF00BF1837BD4680BD80B582B000AFC5
:100D6C0078607868FFF7B0FF034618460837BD4631
:100D7C0080BD000080B48BB000AF78603960002378
:100D8C007B6200233B6269E101227B6A02FA03F376
:100D9C00FB613B681B68FA691340BB61BA69FB696C
:100DAC009A4240F058813B685B689A4A93425ED005
:100DBC00984A934275D8984A934258D0964A93428F
:100DCC006FD8964A934252D0944A934269D8944A27
:100DDC0093424CD0924A934263D8924A934246D063
:100DEC00904A93425DD8122B2AD8122B59D801A2C3
:100DFC0052F823F07B0E0008550E0008670E000811
:100E0C00A90E0008AF0E0008AF0E0008AF0E0008C8
:100E1C00AF0E0008AF0E0008AF0E0008AF0E0008B2
:100E2C00AF0E0008AF0E0008AF0E0008AF0E0008A2
:100E3C00AF0E0008AF0E00085D0E0008710E000822
:100E4C00794A934213D02CE03B68DB683B6229E083
:100E5C003B68DB6804333B6224E03B68DB680833A7
:100E6C003B621FE03B68DB680C333B621AE03B687B
:100E7C009B68002B02D104233B6213E03B689B6808
:100E8C00012B05D108233B627B68FA691A6109E0E2
:100E9C0008233B627B68FA695A6103E000233B62DA
:100EAC0000E000BFBB69FF2B01D87B6801E07B68C9
:100EBC0004337B61BB69FF2B02D87B6A9B0002E089
:100ECC007B6A083B9B003B617B691A680F213B697D
:100EDC0001FA03F3DB431A40396A3B6901FA03F365
:100EEC001A437B691A603B685B6803F08053002BE4
:100EFC0000F0B1804D4B9B694C4A43F00103936168
:100F0C004A4B9B6903F00103BB60BB68484A7B6A90
:100F1C009B08023352F82330FB607B6A03F0030317
:100F2C009B000F2202FA03F3DB43FA681340FB60C9
:100F3C007B68404A934213D07B683F4A93420DD062
:100F4C007B683E4A934207D07B683D4A934201D16D
:100F5C00032306E0042304E0022302E0012300E063
:100F6C0000237A6A02F0030292009340FA6813435A
:100F7C00FB602F497B6A9B080233FA6841F82320F7
:100F8C003B685B6803F48033002B06D02D4B1A684A
:100F9C002C49BB6913430B6006E02A4B1A68BB69EA
:100FAC00DB43284913400B603B685B6803F4003358
:100FBC00002B06D0234B5A682249BB6913434B6064
:100FCC0006E0204B5A68BB69DB431E4913404B605B
:100FDC003B685B6803F48013002B06D0194B9A68AE
:100FEC001849BB6913438B6006E0164B9A68BB69C2
:100FFC00DB43144913408B603B685B6803F40013BC
:10100C00002B21D00F4BDA680E49BB691343CB6020
:10101C0021E000BF0000321000003110000022104F
:10102C0000002110000012100000111000100240EE
:10103C000000014000080140000C0140001001407C
:10104C0000140140000401400B4BDA68BB69DB4320
:10105C0009491340CB607B6A01337B623B681A6899
:10106C007B6A22FA03F3002B7FF48EAE00BF00BF25
:10107C002C37BD4680BC70470004014080B483B05F
:10108C0000AF78600B467B8013467B707B78002B1F
:10109C0003D07A887B681A6103E07B881A047B682A
:1010AC001A6100BF0C37BD4680BC704780B586B056
:1010BC0000AF78607B68002B01D1012372E27B6862
:1010CC001B6803F00103002B00F08780924B5B68D8
:1010DC0003F00C03042B0CD08F4B5B6803F00C0358
:1010EC00082B12D18C4B5B6803F48033B3F5803F33
:1010FC000BD1894B1B6803F40033002B6CD07B683D
:10110C005B68002B68D101234CE27B685B68B3F50C
:10111C00803F06D1804B1B687F4A43F480331360B9
:10112C002EE07B685B68002B0CD17B4B1B687A4AEA
:10113C0023F480331360784B1B68774A23F48023A5
:10114C0013601DE07B685B68B3F5A02F0CD1724B6C
:10115C001B68714A43F4802313606F4B1B686E4A03
:10116C0043F4803313600BE06B4B1B686A4A23F427
:10117C0080331360684B1B68674A23F48023136029
:10118C007B685B68002B13D0FFF7E2FC386108E04A
:10119C00FFF7DEFC02463B69D31A642B01D903230B
:1011AC0000E25D4B1B6803F40033002BF0D014E01D
:1011BC00FFF7CEFC386108E0FFF7CAFC02463B693A
:1011CC00D31A642B01D90323ECE1534B1B6803F4B2
:1011DC000033002BF0D100E000BF7B681B6803F0EC
:1011EC000203002B63D04C4B5B6803F00C03002B09
:1011FC000BD0494B5B6803F00C03082B1CD1464BFE
:10120C005B6803F48033002B16D1434B1B6803F04F
:10121C000203002B05D07B681B69012B01D0012335
:10122C00C0E13D4B1B6823F0F8027B685B69DB0077
:10123C00394913430B603AE07B681B69002B20D0C3
:10124C00364B01221A60FFF783FC386108E0FFF788
:10125C007FFC02463B69D31A022B01D90323A1E17F
:10126C002D4B1B6803F00203002BF0D02A4B1B689C
:10127C0023F0F8027B685B69DB00274913430B60A2
:10128C0015E0264B00221A60FFF762FC386108E07B
:10129C00FFF75EFC02463B69D31A022B01D90323EC
:1012AC0080E11D4B1B6803F00203002BF0D17B681F
:1012BC001B6803F00803002B3AD07B689B69002B5A
:1012CC0019D0174B01221A60FFF742FC386108E075
:1012DC00FFF73EFC02463B69D31A022B01D90323CC
:1012EC0060E10D4B5B6A03F00203002BF0D0012090
:1012FC0000F0A6FA1CE00A4B00221A60FFF728FC4B
:10130C0038610FE0FFF724FC02463B69D31A022B2D
:10131C0008D9032346E100BF0010024000004242FE
:10132C0080044242924B5B6A03F00203002BE9D12A
:10133C007B681B6803F00403002B00F0A6800023DD
:10134C00FB758B4BDB6903F08053002B0DD1884B65
:10135C00DB69874A43F08053D361854BDB6903F02B
:10136C008053BB60BB680123FB75824B1B6803F485
:10137C008073002B18D17F4B1B687E4A43F480731B
:10138C001360FFF7E5FB386108E0FFF7E1FB02466D
:10139C003B69D31A642B01D9032303E1754B1B68FA
:1013AC0003F48073002BF0D07B68DB68012B06D133
:1013BC006F4B1B6A6E4A43F0010313622DE07B688E
:1013CC00DB68002B0CD16A4B1B6A694A23F00103C2
:1013DC001362674B1B6A664A23F0040313621CE01A
:1013EC007B68DB68052B0CD1614B1B6A604A43F0B0
:1013FC00040313625E4B1B6A5D4A43F001031362E4
:10140C000BE05B4B1B6A5A4A23F001031362584BE7
:10141C001B6A574A23F0040313627B68DB68002BBA
:10142C0015D0FFF795FB38610AE0FFF791FB0246F8
:10143C003B69D31A41F28832934201D90323B1E0BC
:10144C004B4B1B6A03F00203002BEED014E0FFF7AA
:10145C007FFB38610AE0FFF77BFB02463B69D31A3E
:10146C0041F28832934201D903239BE0404B1B6A23
:10147C0003F00203002BEED1FB7D012B05D13C4B7D
:10148C00DB693B4A23F08053D3617B68DB69002B1B
:10149C0000F08780364B5B6803F00C03082B61D09F
:1014AC007B68DB69022B46D1334B00221A60FFF7B5
:1014BC004FFB386108E0FFF74BFB02463B69D31A40
:1014CC00022B01D903236DE0294B1B6803F0007339
:1014DC00002BF0D17B681B6AB3F5803F08D1244BFD
:1014EC005B6823F400327B689B68214913434B6093
:1014FC001F4B5B6823F474127B68196A7B685B6A08
:10150C000B431B4913434B601B4B01221A60FFF723
:10151C001FFB386108E0FFF71BFB02463B69D31A3F
:10152C00022B01D903233DE0114B1B6803F0007320
:10153C00002BF0D035E0104B00221A60FFF708FBAF
:10154C00386108E0FFF704FB02463B69D31A022B13
:10155C0001D9032326E0064B1B6803F00073002B14
:10156C00F0D11EE07B68DB69012B07D1012319E068
:10157C000010024000700040600042420B4B5B6860
:10158C00FB60FB6803F480327B681B6A9A4206D1CD
:10159C00FB6803F470127B685B6A9A4201D00123EA
:1015AC0000E0002318461837BD4680BD00100240ED
:1015BC0080B584B000AF786039607B68002B01D1B6
:1015CC000123D0E06A4B1B6803F007033A689A4288
:1015DC0010D9674B1B6823F0070265493B6813431E
:1015EC000B60634B1B6803F007033A689A4201D007
:1015FC000123B8E07B681B6803F00203002B20D0AA
:10160C007B681B6803F00403002B05D0594B5B6807
:10161C00584A43F4E06353607B681B6803F008038B
:10162C00002B05D0534B5B68524A43F46053536014
:10163C00504B5B6823F0F0027B689B684D49134369
:10164C004B607B681B6803F00103002B40D07B6868
:10165C005B68012B07D1474B1B6803F40033002B4D
:10166C0015D101237FE07B685B68022B07D1414BCE
:10167C001B6803F00073002B09D1012373E03D4B71
:10168C001B6803F00203002B01D101236BE0394BE3
:10169C005B6823F003027B685B68364913434B603D
:1016AC00FFF756FAF8600AE0FFF752FA0246FB68B9
:1016BC00D31A41F28832934201D9032353E02D4BC4
:1016CC005B6803F00C027B685B689B009A42EBD171
:1016DC00274B1B6803F007033A689A4210D2244B3D
:1016EC001B6823F0070222493B6813430B60204B15
:1016FC001B6803F007033A689A4201D0012332E0D9
:10170C007B681B6803F00403002B08D0194B5B6843
:10171C0023F4E0627B68DB68164913434B607B68FB
:10172C001B6803F00803002B09D0124B5B6823F4F1
:10173C0060527B681B69DB000E4913434B6000F061
:10174C0021F802460B4B5B681B0903F00F030A4997
:10175C00CB5C22FA03F3094A1360094B1B68184649
:10176C00FFF7B4F9002318461037BD4680BD00BF03
:10177C000020024000100240549E00080800002087
:10178C000C00002090B48AB000AF294B3C1D0FCB4D
:10179C0084E80F0040F201233B800023FB6100230F
:1017AC00BB6100237B6200237B6100233B62214BE6
:1017BC005B68FB61FB6903F00C03042B02D0082B64
:1017CC0003D02BE01C4B3B622BE0FB699B0C03F022
:1017DC000F0328333B4413F8243C7B61FB6903F46F
:1017EC008033002B12D0134B5B685B0C03F00103AE
:1017FC0028333B4413F8283CBB617B690E4A03FB3E
:10180C0002F2BB69B2FBF3F37B6204E07B690B4A27
:10181C0002FB03F37B627B6A3B6202E0064B3B629A
:10182C0000BF3B6A18462837BD4690BC704700BFC6
:10183C00C41D00080010024000127A0000093D008F
:10184C0080B485B000AF78600A4B1B680A4AA2FBD3
:10185C0003235B0A7A6802FB03F3FB6000BFFB689F
:10186C005A1EFA60002BF9D100BF00BF1437BD46D9
:10187C0080BC704708000020D34D621080B582B048
:10188C0000AF78607B68002B01D1012376E07B6888
:10189C005B6A002B08D17B685B68B3F5827F09D04B
:1018AC007B680022DA6105E07B6800221A617B68A4
:1018BC0000225A617B6800229A627B6893F851304F
:1018CC00DBB2002B06D17B68002283F850207868AD
:1018DC00FFF754F87B68022283F851207B681B6861
:1018EC001A687B681B6822F040021A607B685B6890
:1018FC0003F482727B689B6803F404431A437B688D
:10190C00DB6803F400631A437B681B6903F0020372
:10191C001A437B685B6903F001031A437B689B697C
:10192C0003F400731A437B68DB6903F038031A4332
:10193C007B681B6A03F0800342EA03017B689B6AA5
:10194C0003F400527B681B680A431A607B689B692E
:10195C001A0C7B681B6802F004025A607B681B68D7
:10196C00DA697B681B6822F40062DA617B6800220A
:10197C005A657B68012283F85120002318460837EA
:10198C00BD4680BD80B588B000AFF860B9603B60E3
:10199C001346FB800023FB77FB6893F85030012B38
:1019AC0001D1022326E1FB68012283F85020FFF7C6
:1019BC00CFF8B861FB88FB82FB6893F85130DBB23F
:1019CC00012B02D00223FB770BE1BB68002B02D06A
:1019DC00FB88002B02D10123FB7702E1FB68032279
:1019EC0083F85120FB6800225A65FB68BA681A63B9
:1019FC00FB68FA889A86FB68FA88DA86FB6800220C
:101A0C009A63FB6800229A87FB680022DA87FB68DE
:101A1C0000225A64FB6800221A64FB689B68B3F5C9
:101A2C00004F0FD1FB681B681A68FB681B6822F01B
:101A3C0040021A60FB681B681A68FB681B6842F45A
:101A4C0080421A60FB681B681B6803F04003402B44
:101A5C0007D0FB681B681A68FB681B6842F04002E1
:101A6C001A60FB68DB68B3F5006F4BD1FB685B68F1
:101A7C00002B02D0FB8A012B3ED1FB681B6B1A8812
:101A8C00FB681B68DA60FB681B6B9A1CFB681A63AB
:101A9C00FB68DB8E9BB2013B9AB2FB68DA862BE0CB
:101AAC00FB681B689B6803F00203022B12D1FB68D6
:101ABC001B6B1A88FB681B68DA60FB681B6B9A1C33
:101ACC00FB681A63FB68DB8E9BB2013B9AB2FB6826
:101ADC00DA8611E0FFF73CF80246BB69D31A3A6884
:101AEC009A4203D83B68B3F1FF3F02D13B68002B0D
:101AFC0002D10323FB7774E0FB68DB8E9BB2002BD7
:101B0C00CED14CE0FB685B68002B02D0FB8A012B2A
:101B1C0040D1FB681A6BFB681B680C3312781A7087
:101B2C00FB681B6B5A1CFB681A63FB68DB8E9BB251
:101B3C00013B9AB2FB68DA862CE0FB681B689B6859
:101B4C0003F00203022B13D1FB681A6BFB681B68B2
:101B5C000C3312781A70FB681B6B5A1CFB681A63E7
:101B6C00FB68DB8E9BB2013B9AB2FB68DA8611E014
:101B7C00FEF7EEFF0246BB69D31A3A689A4203D8C5
:101B8C003B68B3F1FF3F02D13B68002B02D103232A
:101B9C00FB7726E0FB68DB8E9BB2002BCDD1BA69BC
:101BAC003968F86800F0B2F80346002B02D0FB68E5
:101BBC0020225A65FB689B68002B0AD100233B61ED
:101BCC00FB681B68DB683B61FB681B689B683B61BF
:101BDC003B69FB685B6D002B02D00123FB7700E0B7
:101BEC0000BFFB68012283F85120FB68002283F8B8
:101BFC005020FB7F18462037BD4680BD80B588B08D
:101C0C0000AFF860B9603B601346FB71FEF7A0FFB4
:101C1C000246BB6A9B1A3A681344FB61FEF798FFB5
:101C2C00B861394B1B685B011B0DFA6902FB03F3AE
:101C3C007B6154E03B68B3F1FF3F50D0FEF788FF67
:101C4C000246BB69D31AFA699A4202D9FB69002B86
:101C5C003DD1FB681B685A68FB681B6822F0E002E8
:101C6C005A60FB685B68B3F5827F11D1FB689B6897
:101C7C00B3F5004F04D0FB689B68B3F5806F07D1B8
:101C8C00FB681B681A68FB681B6822F040021A602C
:101C9C00FB689B6AB3F5005F0FD1FB681B681A6881
:101CAC00FB681B6822F400521A60FB681B681A68F8
:101CBC00FB681B6842F400521A60FB68012283F82F
:101CCC005120FB68002283F85020032317E07B6926
:101CDC00002B01D10023FB617B69013B7B61FB681D
:101CEC001B689A68BB681340BA689A420CBF012300
:101CFC000023DBB21A46FB799A429BD1002318468B
:101D0C002037BD4680BD00BF0800002080B586B0DE
:101D1C0002AFF860B9607A607B680093BB68002200
:101D2C008021F868FFF76AFF0346002B07D0FB6899
:101D3C005B6D43F02002FB685A65032300E000232F
:101D4C0018461037BD4680BD70B500260C4D0D4CA5
:101D5C00641BA410A64209D100F022F800260A4DFB
:101D6C000A4C641BA410A64205D170BD55F8043B67
:101D7C0098470136EEE755F8043B98470136F2E7F1
:101D8C00649E0008649E0008649E0008689E00081B
:101D9C0003460244934200D1704703F8011BF9E754
:101DAC00F8B500BFF8BC08BC9E467047F8B500BF3C
:081DBC00F8BC08BC9E4670470C
:101DC40002030405060708090A0B0C0D0E0F101078
:101DD400101000800080011BE77FE77FE77FE77F2B
:101DE400E77FE77FE77FE77FE77FE77FE77FE77FBF
:101DF400E77FE77FE77FE77FE77FE77FE77FE77FAF
:101E0400E77FE77FE77FE77FE77FE77FE77FE77F9E
:101E1400E77FE77FE77FE77FE77FE77FE77FE77F8E
:102D1400E77FE77FE77FE77FEF7FEF5FEF5FEF5FBF
:102D2400E77FE77FE77FE77FE77FE77FE77FE77F6F
:102D3400E77FE77FE77FE77FEF7FEF7FEF7FEF7F3F
:102D4400EF7FEF5FEF5FEF5FEF5FEF7FEF7FEF7F8F
:102D5400EF7FE77FE77FE77FEF5FEF5FEF5FEF5F97
:102D6400E77FE77FE77FE77FE77FE77FEF5FEF5F5F
:102D7400EF5FEF5FEF5FEF5FEF7FEF7FE77FE77F6F
:102D8400E77FE77FE77FE77FE77FE77FE77FEF5F27
:102D9400EF7FEF5FEF5FEF5FEF7FE77FE77FE77F37
:102DA400E77FE77FE77FE77FE77FE77FE77FE77FEF
:102DB400E77FE77FE77FE77FE77FE77FE77FE77FDF
:102DC400E77FE77FE77FE77FE77FE77FE77FE77FCF
:102DD400E77FE77FE77FE77FE77FE77FE77FE77FBF
:102DE400E77FE77FE77FE77FE77FE77FE77FE77FAF
:102DF400E77FE77FE77FE77FE77FE77FE77FE77F9F
:102E0400E77FE77FE77FE77FE77FE77FE77FE77F8E
:102E1400E77FE77FE77FEF7FEF5FEF5FEF5FEF5FD6
:102E2400EF5FE75FE77FE77FEFBFEF9FE77FE75F56
:102E3400E75FE75FE77FE75FEF5FEF5FEF7FEF5FFE
:102E4400EF5EEF5EEF5FF77FF79FF79FEF7FEF5F38
:102E5400E73FE75FE75FEF5FEF3FEF5FEF5FEF7F36
:102E6400EF7FEF7FE75FE75FE75FEF5FEF5FEF5FC6
:102E7400EF3FEF3FF75FF77FE73FEF5FEF9FEF7FB6
:102E8400E75FDF3FE75FE77FE77FE77FE75FEF5FCE
:102E9400EF5FEF5FF75FEF5FEF5FE77FE77FE77F6E
:102EA400E77FE77FE77FE77FE77FE77FE77FE77FEE
:102EB400E77FE77FE77FE77FE77FE77FE77FE77FDE
:102EC400E77FE77FE77FE77FE77FE77FE77FE77FCE
:102ED400E77FE77FE77FE77FE77FE77FE77FE77FBE
:102EE400E77FE77FE77FE77FE77FE77FE77FE77FAE
:102EF400E77FE77FE77FE77FE77FE77FE77FE77F9E
:102F0400E77FE77FE77FE77FE77FE77FE77FE77F8D
:102F1400E77FE77FE77FEF5FEF5FEF5FEF5FEF5FF5
:102F2400EF5FE75FE75FE75FDF1FDF3FE77FEF9F6D
:102F3400EFBFEF9FEF7FE75FEF7FEF5FEF5EEF5E47
:102F4400EF5EEF5EEF5EEF5FE6FDE71DE73EEF5FEE
:102F5400EF7FEF7FE77FE75FEF5FEF3FE71FDF1F65
:102F6400DF1FE75FEF7FEF9FDF1FDF1FE73FEF5FAD
:102F7400EF5FF75FEF3FEF1FF77FEF5FE73FE73F5D
:102F8400E77FEF9FE79FE77FE77FE77FE75FEF5FFD
:102F9400EF5FEF5FF75FEF5FEF5FE77FE77FE77F6D
:102FA400E77FE77FE77FE77FE77FE77FE77FE77FED
:102FB400E77FE77FE77FE77FE77FE77FE77FE77FDD
:102FC400E77FE77FE77FE77FE77FE77FE77FE77FCD
:102FD400E77FE77FE77FE77FE77FE77FE77FE77FBD
:102FE400E77FE77FE77FE77FE77FE77FE77FE77FAD
:102FF400E77FE77FE77FE77FE77FE77FE77FE77F9D
:10300400E77FE77FE77FE77FE77FE77FE77FE77F8C
:10301400E77FE77FE77FEF5FEF5FEF5FEF5FEF5FF4
:10302400EF5FEF5FEF5FEF5FF7BFF7BFEF9FE75F24
:10303400E71EE73EE75EEF9FEF7FEF5FE75FEF7F1F
:10304400EF9FF7BFF7BFEF9FFFFFF7DFF7BFEFBFBC
:10305400EF9FEFBFF7DFF7DFEFBFF7DFF7FFF7FF14
:10306400F7FFEFDFE79FDF7EF7FFEFDFE77FE75E46
:10307400E73DE73EEF5EEF7EF79FF77FEF5FEF5FA1
:10308400E75FE75FE75FE75FE77FE77FE77FE75FAC
:10309400EF5FEF5FEF5FEF5FEF5FE77FE77FE77F74
:1030A400E77FE77FE77FE77FE77FE77FE77FE77FEC
:1030B400E77FE77FE77FE77FE77FE77FE77FE77FDC
:1030C400E77FE77FE77FE77FE77FE77FE77FE77FCC
:1030D400E77FE77FE77FE77FE77FE77FE77FE77FBC
:1030E400E77FE77FE77FE77FE77FE77FE77FE77FAC
:1030F400E77FE77FE77FE77FE77FE77FE77FE77F9C
:10310400E77FE77FE77FE77FE77FE77FE77FE77F8B
:10311400E77FE77FE77FE77FEF7FEF7FEF5FEF5F9B
:10312400EF5FEF5FEF5FEF5FE71EE71DE71DEF7FE8
:10313400F7BFF7BFEF7EDF1DEF9FEF9FEFBFEFDF1E
:10314400EFBFDF3FC6BDB63B9D58951784957413FA
:1031540063B15B505B2F5B2F63B06BD06C117C92BF
:103164009535AE18C6DBD73DD75DDF7EE7BFEFDF11
:10317400EFDFEFBEE77EE75EE71DE71EEF5EEF5F82
:10318400EF7FEF7FEF7FEF9FE77FE77FE77FE77FCB
:10319400E77FE77FE75FE77FE77FE77FE77FE77F1B
:1031A400E77FE77FE77FE77FE77FE77FE77FE77FEB
:1031B400E77FE77FE77FE77FE77FE77FE77FE77FDB
:1031C400E77FE77FE77FE77FE77FE77FE77FE77FCB
:1031D400E77FE77FE77FE77FE77FE77FE77FE77FBB
:1031E400E77FE77FE77FE77FE77FE77FE77FE77FAB
:1031F400E77FE77FE77FE77FE77FE77FE77FE77F9B
:10320400E77FE77FE77FE77FE77FE77FE77FE77F8A
:10321400E77FE77FE77FE77FEF7FEF7FEF7FEF5F7A
:10322400EF5FEF5FEF5EEF5EF77FF79FF79FEF7E55
:10323400E75EE75EEFBFF7FFE79FC6BD9D78743496
:103244004B303A8D220C19CA118A19AA220C324D1C
:103254003A8D3AAD3A8D3A8D3AAC326A2A2921E850
:1032640019C819C819E719E83ACB5BAF84F4AE3929
:10327400CF1CDF9EEFFFF7FFEF7FF77FF79FF79FEE
:10328400F79FF79FEF5EE73DEF7FEF7FE77FE77FF5
:10329400E77FE77FE77FE77FE77FE77FE77FE77FFA
:1032A400E77FE77FE77FE77FE77FE77FE77FE77FEA
:1032B400E77FE77FE77FE77FE77FE77FE77FE77FDA
:1032C400E77FE77FE77FE77FE77FE77FE77FE77FCA
:1032D400E77FE77FE77FE77FE77FE77FE77FE77FBA
:1032E400E77FE77FE77FE77FE77FE77FE77FE77FAA
:1032F400E77FE77FE77FE77FE77FE77FE77FE77F9A
:10330400E77FE77FE77FE77FE77FE77FE77FE77F89
:10331400E77FE77FE77FE77FE77FE77FEF7FEF7F69
:10332400EF5FEF5EEF5EEF5EEF3DE73DE75EF7DFF9
:10333400F7FFD71EA5777432322B220B19EB222C00
:103344003ACF53D36CB77D398DDC95FC9E1C9E3DE2
:10335400A63DA61CA61B9E1B9DFA9E3B9E5B9E3B08
:1033640095D97D576CB46452432E32AC19E9118857
:1033740019C942EE74749D78D71EE77FEF9FEF7FE3
:10338400DF1DDF1DEF7EFFFFEF7EEF7FE77FE77F2F
:10339400E77FE77FE77FE77FE77FE77FE77FE77FF9
:1033A400E77FE77FE77FE77FE77FE77FE77FE77FE9
:1033B400E77FE77FE77FE77FE77FE77FE77FE77FD9
:1033C400E77FE77FE77FE77FE77FE77FE77FE77FC9
:1033D400E77FE77FE77FE77FE77FE77FE77FE77FB9
:1033E400E77FE77FE77FE77FE77FE77FE77FE77FA9
:1033F400E77FE77FE77FE77FE77FE77FE77FE77F99
:10340400E77FE77FE77FE77FE77FE77FE77FE77F88
:10341400E77FE77FE77FE77FE75FE75FEF5FEF7FC8
:10342400EF7FEF7EEF7EEF7EFFFFFFFFE75FA5B844
:103434005BB12A2B220B2A4C643474B68D7A9E3DE0
:10344400A6BFA6BF9E7F8E5E8E3E8E1E8DFD8DFC1A
:103454008DDC95FC961C9E3D8DFD8E1D8E1D8E1D56
:10346400963D9E5E9E7EA69E9E5D9E3C8DDB7D3936
:103474005C353B1111EC01292A0B6390ADD9E77F30
:10348400FFFFF7DFE75DD6DBEF7EEF7EEF7EE77FC2
:10349400E77FE77FE77FE77FE77FE77FE77FE77FF8
:1034A400E77FE77FE77FE77FE77FE77FE77FE77FE8
:1034B400E77FE77FE77FE77FE77FE77FE77FE77FD8
:1034C400E77FE77FE77FE77FE77FE77FE77FE77FC8
:1034D400E77FE77FE77FE77FE77FE77FE77FE77FB8
:1034E400E77FE77FE77FE77FE77FE77FE77FE77FA8
:1034F400E77FE77FE77FE77FE77FE77FE77FE77F98
:10350400E77FE77FE77FE77FE77FE77FE77FE77F87
:10351400E77FE77FE77FE77FE75FE75FE75EEF7FD0
:10352400EF7FEF7FEF7FEF9FC67B7C73322B19A970
:103534003ACF6CB68DDB9E3D9E3D9E3D963D8E1DE5
:103544008DFD85FD85FE861E861E863F863F8E3E4A
:103554008E3E8E1E8DFD85FD861F861F861F861F4F
:103564008E1E85FE85FD85DD8DFD8DFD95FE9E3FC0
:103574009E7F961F857C74F93B1021EB0948324BE2
:103584007C94CEBCEFDFF7FFEF7EEF7EEF7EEF7F24
:10359400E77FE77FE77FE77FE77FE77FE77FE77FF7
:1035A400E77FE77FE77FE77FE77FE77FE77FE77FE7
:1035B400E77FE77FE77FE77FE77FE77FE77FE77FD7
:1035C400E77FE77FE77FE77FE77FE77FE77FE77FC7
:1035D400E77FE77FE77FE77FE77FE77FE77FE77FB7
:1035E400E77FE77FE77FE77FE77FE77FE77FE77FA7
:1035F400E77FE77FE77FE77FE77FE77FE77FE77F97
:10360400E77FE77FE77FE77FEF7FE73FF7BFEF9F46
:10361400DEFEEF9FFFFFE73EE73EE75EE75EE77F04
:10362400F7DFEFBFADD95B7021C92A2C5C1495FC80
:103634009E7E965F8E3E85FD85DC965D85BB85FD11
:10364400969F8E7F863F7E1E865F75FE75DE8E9FFB
:103654007DFE75BD969F7DFE7DFF865F7DFF7DDFD0
:103664008E3F8E3F85DE8DFE961F7D9C961F8DDEE0
:103674008DFF8DFF963F8DFF963E8DDC6CB73AEF44
:1036840011A921C963D1B63AEFDFEFBFE73DE73DAA
:10369400F79FEF5EE73EF79FEF7FE75FE75FE75F48
:1036A400EF7FE77FE75FE75FE77FE77FE77FE77F1E
:1036B400E77FE77FE77FE77FE77FE77FE77FE77FD6
:1036C400E77FE77FE77FE77FE77FE77FE77FE77FC6
:1036D400E77FE77FE77FE77FE77FE77FE77FE77FB6
:1036E400E77FE77FE77FE77FE77FE77FE77FE77FA6
:1036F400E77FE77FE77FE77FE77FE77FE77FE77F96
:10370400E77FE77FE77FE77FE73FEF9FE75FE75FDD
:10371400F7BFEF9FE73FEF7FEF9FEF9FEFBFE79F7D
:10372400ADD93AAD19893AEF74B695FC9E9F8E1EB9
:103734007DBD7DFE861F863F965E7D9AA6BF85FC75
:103744007DDC759B861E8E5F7DFE867F8EBF6DBD84
:10375400865F8EBF657C8EBF7E3F7E1F865F8E5FD9
:1037640085FF7DDD8E1E963E8E1E9E7F963E8E1EAE
:103774008DFF7D9D8E1F8E1F8DFE963E965E961C40
:1037840075184B91220B0926530DB639FFFFF7DF4D
:10379400E75EEF5EF77FF79FE73EEF7FEF7FE73F60
:1037A400E73FEF9FEF9FE77FE77FE77FE77FE77FD5
:1037B400E77FE77FE77FE77FE77FE77FE77FE77FD5
:1037C400E77FE77FE77FE77FE77FE77FE77FE77FC5
:1037D400E77FE77FE77FE77FE77FE77FE77FE77FB5
:1037E400E77FE77FE77FE77FE77FE77FE77FE77FA5
:1037F400E77FE77FE77FE77FE77FE77FE77FE77F95
:10380400E77FE77FE77FE77FF7BFDEFEE73FF7DF8E
:10381400EF9FDF1EE73FE77FDF5EEFDFCEFD5BB1AB
:10382400114842EF8D7A95FC8DDC9E9F965F7DDD7D
:10383400863F8E5F7E1F861E85FCA69E8DFC963D70
:10384400A69F9E9F8E1D963E8E5E7DDD7DDD863F0E
:10385400863F865F867F6DDE75FE8E7F7DFE757C7E
:10386400967FA6FF8E1C75187D387D38859A8DDB72
:103874009E3E9E7F7D5B965F861E7DFD861E965EC8
:103884009E7E9E5D85585BF3220A09066390DF3EA7
:10389400EFBFEF5EF79FE71DF7DFDF3EDEFEEF7F52
:1038A400F7DFEF7FE75FEF7FE77FE77FE77FE77F84
:1038B400E77FE77FE77FE77FE77FE77FE77FE77FD4
:1038C400E77FE77FE77FE77FE77FE77FE77FE77FC4
:1038D400E77FE77FE77FE77FE77FE77FE77FE77FB4
:1038E400E77FE77FE77FE77FE77FE77FE77FE77FA4
:1038F400E77FE77FE77FE77FE77FE77FE77FE77F94
:10390400E77FE77FE77FE77FEF7FEFBFE75FDEFEDD
:10391400E75FF7BFF7BFEF9FE7BF8D16220B2A2C97
:103924007CF795FC85BB8DFD8E3F7DDD75BD7E1ED0
:103934008E5F861F85FE8E3E95FC9E3C6C753B0F0C
:103944002A8D3AEF3B3064757D59A6BF8E1D861EC5
:10395400863F6DBD7E5F7E5F865F863E8E3D9E7E2A
:10396400859A3B7011EA19EA096801061188222C2C
:103974005BF39E1C95DB961D8E3F7DFE85FE85FECA
:1039840085FD965E9E7E9E3D8D795BF21989196751
:103994008494EF7FFFDFDF1DDEFDEF9FF7DFEF7F16
:1039A400DF1EE73FEF7FEF9FE77FE77FE77FE77F5C
:1039B400E77FE77FE77FE77FE77FE77FE77FE77FD3
:1039C400E77FE77FE77FE77FE77FE77FE77FE77FC3
:1039D400E77FE77FE77FE77FE77FE77FE77FE77FB3
:1039E400E77FE77FE77FE77FE77FE77FE77FE77FA3
:1039F400E77FE77FE77FE77FE77FE77FE77FE77F93
:103A0400E77FE77FE77FE77FEF7FD6DDEFBFFFFF4D
:103A1400DEFEDF1EE77FC67C3A6C19AA53B2A67E8F
:103A2400A67F85BC85FE967F8E5F861F8E3F8E3F68
:103A34007DBD8DFD965E95FC6C7519A92A0A2A2A0E
:103A44003A6C4ACD324B09062A0B4B70961C963DB4
:103A540085FD865F75DE8E7F85FC961C9E5C6CB54D
:103A640019EA0967430C7431A59695558D153A8B5F
:103A7400198719A984F69E1C8E3E861E8E5F8E5F62
:103A8400861E7DDD7DDC85DC963DA67E95DB4B5078
:103A940008E6320AAD98FFFFEF9FE75FE73FE75F75
:103AA400E77FE75FE75FEF7FE77FE77FE77FE77F1A
:103AB400E77FE77FE77FE77FE77FE77FE77FE77FD2
:103AC400E77FE77FE77FE77FE77FE77FE77FE77FC2
:103AD400E77FE77FE77FE77FE77FE77FE77FE77FB2
:103AE400E77FE77FE77FE77FE77FE77FE77FE77FA2
:103AF400E77FE77FE77FE77FE77FE77FE77FE77F92
:103B0400E77FE77FE77FE77FF7DFE75FE73FE73FB1
:103B1400EF9FF7BF9D36192742EF95DBAE9F85BC1B
:103B240085DD8E5F863F7DFF7E1F861F861F85FD98
:103B3400961DA67E7D18328D1168428B31E9D6DC44
:103B4400FFFFFFFFF7DFD6DB6B8F1126326C857921
:103B5400963D965F865F759C8DDB9E3C4B5000A422
:103B64003AACB639EFDFFFFFF7DEF7BEEF7EE77E54
:103B740032094AED00A4641395FD8E3E85FD7DDD7A
:103B84008E5F8E7F8E5F8E9F85FD85FD7D7B95DBB1
:103B94008D592A2C11287413E75FE75FE75FE75F0D
:103BA400EF9FF7BFEF7FE73FE77FE77FE77FE77FA1
:103BB400E77FE77FE77FE77FE77FE77FE77FE77FD1
:103BC400E77FE77FE77FE77FE77FE77FE77FE77FC1
:103BD400E77FE77FE77FE77FE77FE77FE77FE77FB1
:103BE400E77FE77FE77FE77FE77FE77FE77FE77FA1
:103BF400E77FE77FE77FE77FE77FE77FE77FE77F91
:103C0400E77FE77FE77FE77FE73FF7DFE73FEF9F68
:103C1400E73F52ED18E67C54B69E8DDC8DDC8E3E7B
:103C240085FE7E1F865F7E3F865F863F7DBD8DDD80
:103C3400A63D7CB63A8D29C9BE5AFFFF4A6A8C71EB
:103C4400F79DFFFEFFFEFFDEFFFFC65929C92A4C80
:103C54008D9A8DFC7DFD8E3EA65D5BD21168530E60
:103C6400DF3EFFFFF79EFFBEFFFFFFFFFFBE318673
:103C74007BAFF7BF9CF608C66456961E965F7DBD63
:103C8400863F863F75BE75DE865F8E7F965F8DFDAF
:103C940095DC95BB5BB308C652EEC63BFFFFE75FFE
:103CA400CE9CEF7FF7DFDF3EE77FE77FE77FE77FAD
:103CB400E77FE77FE77FE77FE77FE77FE77FE77FD0
:103CC400E77FE77FE77FE77FE77FE77FE77FE77FC0
:103CD400E77FE77FE77FE77FE77FE77FE77FE77FB0
:103CE400E77FE77FE77FE77FE77FE77FE77FE77FA0
:103CF400E77FE77FE77FE77FE77FE77FE77FE77F90
:103D0400E77FE77FE77FE77FEF7FDF3EF7FFBE3B9D
:103D14003A4B322B9537B65D8D9A961D8E3E861E94
:103D2400863F7E3F7E1F7E1F7E1F8E3F8DFDA65EDB
:103D34008D7921C93A2AE77EFFFFFFFFBDD72924E9
:103D4400D637FFDDFFBDFFFEFF7DFFFFB61921C99A
:103D54003AEE9E1C963D961C7CB600A552EEF7FFEB
:103D6400FFFFF79EFFFFFFBEFFFFEF1B522862AB72
:103D7400FFFFFFFFFFBF94F509487D18A69F85DD6F
:103D8400861E863F7DFF8E7F7E3F7DFF861F8E1EB3
:103D94008DFD9E3E95FD7CD808E73A4B9516EF9F26
:103DA400F7FFE73FDEFDEF9FEF7FEF7FEF7FEF7FD2
:103DB400E77FE77FE77FE77FE77FE77FE77FE77FCF
:103DC400E77FE77FE77FE77FE77FE77FE77FE77FBF
:103DD400E77FE77FE77FE77FE77FE77FE77FE77FAF
:103DE400E77FE77FE77FE77FE77FE77FE77FE77F9F
:103DF400E77FE77FE77FE77FE75FE77FE77FE77FAF
:103E0400EF7FE73EEF9FE75EE77FEFDF9D9919893C
:103E14003ACFA65D961C95FC8E1D8E1D8E1E861EA9
:103E2400861F7E3F7E3F7E3F7DFE8E5F961DA63CB5
:103E34003AAC3209EFBFFFFFF7DFFFFFFFFF8C5003
:103E44002924C617FFBDFFFFFFBEFFDFFFFFADF94B
:103E540011676C53B69D959829A84229DEFCFFFF93
:103E6400F7BFFFFFFFFFFFFFCE3839A6630CFFDF6C
:103E7400FFFFF79EFFFFF7FF63D1220B95DB961D33
:103E84008E3E8E3F7DFF865F861F861F861F861FA0
:103E94008E1F8E1E8E1E8E1D7D18328D01277494EA
:103EA400EFDFEFBFE75FEF7FE73EEF7FEF5EF79F68
:103EB400E73EE75FF7FFDF3FE77FE77FE77FE77FE7
:103EC400E77FE77FE77FE77FE77FE77FE77FE77FBE
:103ED400E77FE77FE77FE77FE77FE77FE77FE77FAE
:103EE400E77FE77FE77FE77FE77FE77FE77FE77F9E
:103EF400E77FE77FE77FE77FDF3FEFBFDF3EEF7FCF
:103F0400EF9FE73EF7DFDF5EDF7F9D78094853B21E
:103F1400A69E85BB967F85DD8E1D8E1D8E1E861EFC
:103F2400861F861F7E3F861F863E8DFD9E3D6C75D7
:103F34001167C69AFFFFF7DEFFFFEFBEFFFFFFFF2B
:103F440084303165B575FFDEFFFFFFFFF7FFF7FF34
:103F5400638F21C8A5F97C7331C79CF3FFFFF79EDB
:103F6400FFFFFFFFEF5D8410296594B2F79EFFFF0A
:103F7400FFDFFFFFFFFFF7FFCEDC324B53B1AE7E16
:103F84008DDC85FE8E5F7E1F861F861F861F861F23
:103F9400861F861F861F861E967E8599435000E7DE
:103FA40063D1EFBFE77FEF5FFFBFEF5FE6FDE75E43
:103FB400F7BFE77FDF5FEFBFE77FE77FE77FE77F5D
:103FC400E77FE77FE77FE77FE77FE77FE77FE77FBD
:103FD400E77FE77FE77FE77FE77FE77FE77FE77FAD
:103FE400E77FE77FE77FE77FE77FE77FE77FE77F9D
:103FF400E77FE77FE77FE77FF7DFCEBCEFBFF7BF61
:10400400CE9BFFFFE75FEFFF953700A553D2AEBF0E
:1040140085BB967E969F7DDD861E861E861E861F28
:10402400861F7E3F861F861F8E3E85FC95DB220BF6
:104034006C11F7FFEFBEFFFFF7DFFFFFF79EFFFFF7
:10404400FFDEB5952103738DDEDAFFFFF7DFF7FF9F
:10405400BE5A21C87C9342AC4249FFDFF7BEFFFF42
:10406400E73CAD554A694A49C638FFDFFFFFFFDF29
:10407400FFFFFFFFF79EFFFFFFFF741121C99E1B87
:104084008DFC85FD8E3F7DFF861F861F861F861F44
:10409400861F861F861F861E9E9E85BA8DDB5C1337
:1040A40009275BB1EFBFE75FE71EE73EEF7FEF7FD6
:1040B400EF7FE77FDF5FE79FE77FE77FE77FE77FCC
:1040C400E77FE77FE77FE77FE77FE77FE77FE77FBC
:1040D400E77FE77FE77FE77FE77FE77FE77FE77FAC
:1040E400E77FE77FE77FE77FE77FE77FE77FE77F9C
:1040F400E77FE77FE77FE77FEFBFE73EEF9FE75E7E
:10410400EF9FDF1EF7FF8CD511486C54A67D961CDB
:10411400963E8E3E759C8E9F861E861E861F863F0B
:104124007E3F7E3F861F861F861E963D645521EA8C
:10413400DF7FF7FFF7DEFFFFFFFFF7BFFFFFFFFFA4
:10414400FFDFFFFFE71B6B2C2965738EBE18FFFF93
:10415400F7FF4ACC322A29E8B5B7FFFFEF7D94B2C6
:1041640042283186A534F7BEFFFFFFFFF7BEFFFFED
:10417400FFFFFFDFFFDFFFFFFFFFCEDB21C86C7413
:10418400A67E963E7DDE863F861F861F861F861F7F
:10419400861F861F861F861E85FD963D963DA67D3D
:1041A4004B9100E66BD2E79FE77FE75FEF7FF7BFB6
:1041B400E73EDF3EF7BFDF3EE77FE77FE77FE77F4E
:1041C400E77FE77FE77FE77FE77FE77FE77FE77FBB
:1041D400E77FE77FE77FE77FE77FE77FE77FE77FAB
:1041E400E77FE77FE77FE77FE77FE77FE77FE77F9B
:1041F400E77FE77FE77FE77FE73EF7DFE73EE75FBD
:10420400F7FFEFDF84B521A96413AE7D963D963E9A
:10421400861D75DD96DF75DE7E3F7E3F7E3F7E3FE9
:104224007E3F7E3F861F861F8E1E963D224C7474F1
:10423400EFFFFFFFFFFFE71BF7BEFFFFFFFFF7BE28
:10424400FFFFFFFFFFFFFFFFDEDA5ACB296631C70E
:1042540052EC428B320919466B8E5ACB3186420896
:10426400C618FFFFFFFFFFFFEF7DEF7DFFFFFFFF9E
:10427400F7BEF7BEFFFFFFDFF77DFFFF530D42EEF2
:10428400AEBE963E7DBD863F861F861F861F861F57
:10429400861F861F861F861E85FD8E5E8E1D8DDB06
:1042A400A65D5BF3092863B2E77FF7FFDF1EEF7FAC
:1042B400F79FDF1EEFBFE75FE77FE77FE77FE77FDB
:1042C400E77FE77FE77FE77FE77FE77FE77FE77FBA
:1042D400E77FE77FE77FE77FE77FE77FE77FE77FAA
:1042E400E77FE77FE77FE77FE77FE77FE77FE77F9A
:1042F400E77FE77FE77FEF7FEF9FDF1DEFBFE77F7C
:10430400E77FBE7C08E65BB2AE9E859B963E85FD4C
:104314007DFE8E9F7E1F7E3F7E3F7E3F7E3F7E3FA3
:104324007E3F861F861F8E1E965E855911A9BE7C10
:10433400F7FFDF1B8C506B4C73CFDF1CEF7EFFFF4E
:10434400FFFFFFDEFF9EFFBEFFBEFFFFF7BEBDD730
:1043540073AF52CC21664A8A7BCF9CD3E71CFFFF04
:10436400C638DEFBEF7DFFFFFFFFFFFFFFDFFFFF30
:10437400FFFFFFFFFFFFFFFFFFFEFFFF8C932A2BD2
:104384009E1C8E1D861E7DFF861F861F861F861F10
:10439400861F861F861F861F861E7DDD8E5E963EC7
:1043A400963DA65D641400C66C13E7BFEFBFDF1E25
:1043B400F7DFEF7FEF7FEF9FE77FE77FE77FE77F21
:1043C400E77FE77FE77FE77FE77FE77FE77FE77FB9
:1043D400E77FE77FE77FE77FE77FE77FE77FE77FA9
:1043E400E77FE77FE77FE77FE77FE77FE77FE77F99
:1043F400E77FE77FE77FEF7FF7BFDEFCF7BFDF1ED6
:10440400C69C29EA53919E1C8DDB8DFD861E861F5A
:10441400863F7E1F7E1F7E5F7E3F7E3F7E3F7E3FC8
:104424007E3F861F861E8E1D9E5E5C142A4BDF5EB9
:10443400EF9E632C18E2294429454A6AFFFFEF5D89
:10444400FFFFFFFFFFFFFFFFFFFFFFFFF77EF79E6A
:10445400FFFFD6DB21467BF0FFDFFFFFC63829656F
:1044640018E331868430FFFFEF7DFFFFFFFFF79EE7
:10447400FFFFFFFFFFFFFFFFFFFEFFBDB5F821C9F0
:104484008D79963E861F7E1F7E1F7E1F861F861F88
:10449400861F861F861F863F7E1F96BF7DFE85FE74
:1044A40085DC8DDC9E3D5BF4118984D6E79FDF5F5C
:1044B400E75FF7DFE73EEF9FEF7FE77FE77FE77F89
:1044C400E77FE77FE77FE77FE77FE77FE77FE77FB8
:1044D400E77FE77FE77FE77FE77FE77FE77FE77FA8
:1044E400E77FE77FE77FE77FE77FE77FE77FE77F98
:1044F400E77FE77FE77FEF7FEF5EEF7EE75EEFBF6B
:104504003AAD324D9E1C95FC8DFD967F861F7DFE37
:10451400863F7E3F7E3F7E3F7E3F7E3F7E3F7E3FA7
:10452400863F861E8E1D961D9E1C432F4AEEF7FF66
:1045340094D31081316441E739C721469CF4FFFFCD
:10454400FFFFF79EFFFFFFDFFFFFFF9EFFFFF77DEB
:10455400FFDFF79E29459472FFFFD6BA31A6318654
:10456400422831A618E3BDD7FFFFFFDFFFFFFFFF9F
:10457400FFFFFFFFFFFFFFFFFFDEFFDEDF1C196809
:104584007D18A69F7DDD865F861F7E1F861F861F82
:10459400861F861F863F7E3F863F75DE863F863FA9
:1045A4008E5F8E3E85BBA65E3AF01189ADFAEFFFB1
:1045B400DF3FEFBFDF1DF79FEF7FE77FE77FE77FF9
:1045C400E77FE77FE77FE77FE77FE77FE77FE77FB7
:1045D400E77FE77FE77FE77FE77FE77FE77FE77FA7
:1045E400E77FE77FE77FE77FEF7FE77FDF3EEF7FD0
:1045F400EF7FE75FEF9FDF3EEF9FEF7FE79F6BD19A
:1046040019898D9A9E5E8DFD8E3E863F861F7E1F84
:104614007E1F7E3F863F865F865F865F863E861D61
:10462400861D963E9E3D9E3C9DFB2A0B7C53FFFFC0
:10463400528A7BCE630B39C631A731A7632DF7BFEE
:10464400FFFFFFDFFFFFFFFFFFBEFFFFFFBEFFDF38
:10465400FFFFDEDB29459CD3FFFF8430296539E762
:10466400296539C72945630CFFDFFFFFFFFFFFFF03
:10467400FFFFFFFFFFFFFFFFEF7CFFFFDF3D116741
:104684007CF79E7E7DBC85FE7DDE861F863F863F51
:10469400861F861F861F7E1F7E1F863F863F7DFEE8
:1046A4007DDE861E8E1E961D95DC2A6E19CACEFEF0
:1046B400EFDFDEFDF7BFEF5EEF7FE77FE77FE77FAA
:1046C400E77FE77FE77FE77FE77FE77FE77FE77FB6
:1046D400E77FE77FE77FE77FE77FE77FE77FE77FA6
:1046E400E77FE77FE77FE77FE75FEF7FE77FE75FCE
:1046F400E75FE75FEF9FEF9FEF7FDF5EA5B81148AD
:104704007CF7AE9E7D7B8E3E7DDD863F865F863F59
:104714007E1F7E1F861E85FE85FD7DFC85FC965EC4
:10472400A69F961C74D7539142CE08E5ADB8DF3DE1
:1047340094B3FFBEF77D39C739C721254229FFFF4E
:10474400FFFFFFFFFFDFFFDFFFFFFFFFFFBEFFFFF6
:10475400FFDFD67921049CB2FFDF73AEBDF7CE59DB
:104764004A4931863186528AF79EFFDFFFFFFFFFF9
:10477400FFFFFFFFFFFFFFFFFFFFFFFFCEDB21C9AE
:104784006C959E1C9E5E9E7F965F861E85FE8E3E69
:10479400861E7DDD861F96BF7DFF7E1F861F863F9A
:1047A400865F8E5F861E85DD965E7D3911AA42EE98
:1047B400E7BFEF9FEF7FEF5EEF7FE77FE77FE77F66
:1047C400E77FE77FE77FE77FE77FE77FE77FE77FB5
:1047D400E77FE77FE77FE77FE77FE77FE77FE77FA5
:1047E400E77FE77FE77FE77FE75FEF7FEF7FE73FE5
:1047F400E77FEF7FE73FE77FDF5FD71E3A8C3ACE54
:10480400A65D9E7E7D9C8E7F865F863F861F861F6B
:10481400861F8E1E8E3E965E963D961C9E5D961B52
:104824006454222B116821C9428C2146AD97DEFCC9
:104834006B6DFFFFFFFF4A48318629664A6AFFFF16
:10484400F7BFFFFFFFFFFFDFFFFFFFFFFFDFFFFFFC
:10485400F79EBDD721249471FFFF738EFFFFFFFFE6
:1048640052AA39C7296539C7EF7DFFDFFFFFFFFF74
:10487400FFFFFFFFFFFFFFFFF7DEF7FFCEBB198748
:10488400220A2A6D5C147D39859B9E5E9E5E85BCE2
:1048940085FD9EBF8E5F651A8E3F863F863F863FAD
:1048A400863F7E1F861F861E8E3E9E5E645500E7F1
:1048B4007C95EFDFDF1DF79FEF7FE77FE77FE77FE3
:1048C400E77FE77FE77FE77FE77FE77FE77FE77FB4
:1048D400E77FE77FE77FE77FE77FE77FE77FE77FA4
:1048E400E77FE77FE77FE77FEF9FE75FE75FE75FCC
:1048F400EF9FEF9FDEFEE75FEFDF7C9419CA9E1CFB
:104904008DBB85FD8E7F865F865F7E1F861F8E5FD3
:104914008E3F85BC8D9B95FB9E1B8DB96433220A0B
:1049240009273A6B8494BE19E73D5AEC9CF4FFFFC7
:10493400632CB59694B2318631C62945738EFFDF58
:10494400F79EFFFFFFFFFFFFFFDFFFFFFFFFF7BE45
:10495400FFDF9CD3212473AEF7BE6B6DF79EEF5D32
:104964004A4939C731864228F79EFFDFFFFFFFFF20
:10497400FFFFFFFFFFFFFFFFFFFFFFFFADF719671B
:1049840063D13ACD220B09282A4C5BD28D99A65DBE
:10499400961D8DDC8E1D9E9F85FE85FE861F861FBF
:1049A4007DFF75DE7E1F8E7F7DDD85DCAEBF4B30E7
:1049B4000907B5FAF7BFE75FE77FE77FE77FE77FA0
:1049C400E77FE77FE77FE77FE77FE77FE77FE77FB3
:1049D400E77FE77FE77FE77FE77FE77FE77FE77FA3
:1049E400E77FE77FE77FE77FEF9FE75FE75FE77FAB
:1049F400EF9FE75FE75FEFDFC6DD11686C95A67E8A
:104A040085DC8E5F865F7DFF7E1F7E3F861F85FE71
:104A14008DFD9E3DA61DA5FB64122A2A08E5428B46
:104A2400A597EFBFFFFFFFFFFFFF420883F0FFDF03
:104A34007BCF18C331A731A631C621039CF3FFDF16
:104A4400FFFFFFFFF79EFFFFFFFFFFFFFFFFF7BE24
:104A5400FFFF6B4D21044A69FFFF6B4D4A69632CCC
:104A6400212431863186630CFFFFFFFFFFFFFFFF28
:104A7400FFFFFFFFFFFFFFFFF7BEFFFF845129E7A2
:104A8400F7FFF7FFC6BC9D574AED21880906328C13
:104A940074B695FB961C8DFC85DD85DE85FE861F30
:104AA400863F7E1F7E1F7E3F7DFE85FD95FD9DFC1E
:104AB400116942ADF7DFDF3EE77FE77FE77FE77FFE
:104AC400E77FE77FE77FE77FE77FE77FE77FE77FB2
:104AD400E77FE77FE77FE77FE77FE77FE77FE77FA2
:104AE400E77FE77FE77FE77FE75FE77FE75FEF9FAA
:104AF400E73FDF1EF7DFEFBF53502A6DA65D8DFC45
:104B0400967F863F75FF7E3F7E3F865F861F85DDED
:104B14009E3EA65D84D74B0E11264ACBADB7FFFF50
:104B2400FFFFF7BEEF5DFFFFFFFF62CA7B8EFFFF53
:104B3400C639298629A731A7212452AAF79DFFDF68
:104B4400FFFFFFFFFFFFFFFFFFFFF7DFFFFFFFFF99
:104B5400F7BE39E739E73186E73CC618210421243A
:104B6400528A39E72945A534FFFFFFFFFFFFFFDF26
:104B7400FFFFFFFFFFFFFFFFFFFFFFFF5B0B32079E
:104B8400F7FFFFFFFFDFFFFFFFFFD69A7C1129C865
:104B940009062A6C6CB69E3D9E5F963F8DFE85FE8F
:104BA400861F865F863F7DFE865F861E85BB9E3D93
:104BB4006C3411278CB5F7DFE77FE77FE77FE77F6A
:104BC400E77FE77FE77FE77FE77FE77FE77FE77FB1
:104BD400E77FE77FE77FE77FE77FE77FE77FE77FA1
:104BE400E77FE77FE77FE77FDF3EEF9FE73FEF9FCA
:104BF400E73FE75FF7DFA59819A98579961C965ECC
:104C04008E3E75DE7E3F7E7F761F7DFF8E5F9E7FAC
:104C14008DBB5BD229EB110694F4DF3CFFFFFFDE72
:104C2400F77DFFFFFFFEFF9DFFDF9C9241E7FFFF43
:104C3400FFFFB5D75B0D21656B6DBDF7FFFFFFDE91
:104C4400F7BEFFFFFFFFFFFFFFFFFFFFFFFFFFFFB9
:104C5400AD7531C79CF339E79492FFFF7BCF18E31E
:104C640029452124738EFFFFFFFFFFFFFFFFFFFF96
:104C7400FFFFFFFFFFFFFFFFFFFFCE7931A694B2D6
:104C8400FFFFFFFFFFFFFFDEFFDEFFFEFFFFE73D4D
:104C9400849321C90947222C74F9859C961E85FEAC
:104CA4007DFE863F865F7E3F865F7DDD963E8DBBC3
:104CB4009DDB3A8D29A9DF1EE77FE77FE77FE77F4A
:104CC400E77FE77FE77FE77FE77FE77FE77FE77FB0
:104CD400E77FE77FE77FE77FE77FE77FE77FE77FA0
:104CE400E77FE77FE77FE77FE73FF7DFDEFEEF9FC2
:104CF400EF7FEFBFE77F4AEE4B3095FB8DFC965F6D
:104D04007DFE7E5F8EBF761F867F7DBD8DFD95FC0B
:104D14005391112752EECEBCFFFFFFFFFFFEFFFFB2
:104D2400FFFFFFFEFFDEFFFEFFFFCE383165DEDB57
:104D3400FFFFFFFFEF7EEF7EFFDEFFFFF79DFFFF2C
:104D4400FFFFF7BEFFFFFFFFFFDFFFFFFFFFEFBE29
:104D54005B0C4A8AFFFF52CB4229F7BEFFFFBDD747
:104D64008410AD35FFFFF79EF7DFFFFFFFFFFFFF66
:104D7400FFFFFFFFFFFFFFFFFFFF94D218C2DEFB20
:104D8400F79DFFDEFFFEFFFEFFFEFFDDFFBDFFFF21
:104D9400FFFFD73D7C942A2B11AA53D395DC9E5E4A
:104DA4008E1D861E863F865F7E3F7E1F85FD961D77
:104DB400A65D747519688473E77FE77FEF7FEF7FE3
:104DC400EF7FEF7FEF5FE77FE77FE77FE77FE77FB7
:104DD400E77FEF7FEF5FEF5FE79FE79FE79FE79F47
:104DE400E77FE77FE77FE77FEF7FEF7FEF5FE71EF8
:104DF400EF7FEFBFBE3B19898D9A85BB85FC863E4C
:104E04007E3F763F7E3F865F85DD9E5E9DFB324C16
:104E140011268CB4E77FFFFFFFFFFFFFFFFFFFFFBB
:104E2400FFFFFFFFFFFFFFFFF7DEFFFF4A49840F8D
:104E3400FFFFFFFFF79EF7DEFFDEFFFFFFFFFFFF31
:104E4400FFFFFFFFFFDFFFBFFFDFFFBFFFFFBE1856
:104E54002145B618F7FFB5F708C2A555FFDFFFBF18
:104E6400FFFFF77EFFFFFFDFF7DFF7FFF7FFF7FF37
:104E7400F7FFF7DFFFFFFFFFEF5C39E7630CFFFF8E
:104E8400FFFEFFFFFFFFF7FEFFFFFFFFFFFFFFFF38
:104E9400F7FFF7FFEFDFE77E534F09273AAD7CF6C4
:104EA4009E1B963D759B8E7F761F869F7E3F85FE5B
:104EB4008DDCA65D3A8D29E9CE9BF7DFEF5EEF5FCF
:104EC400F79FEF3FF79FE75FE77FE77FE77FE77FA6
:104ED400E77FEF5FEF5FEF5FE79EE79EE79FDF9F70
:104EE400DF9FE77FE77FE77FEF5FE71EF79FF79F8F
:104EF400EF9FDF5F6390326C95FB965D969F863ED5
:104F04007E3F865F75DE861E961D9DFB3A6C29A842
:104F1400A556FFDFFFFFEF9EFFFFFFFFFFFFFFFF31
:104F2400FFFFFFFFFFFFFFFFFFFFF7FF8C504A6902
:104F3400DEFBFFFFFFFFFFFFFFFFFFFEF79DFFDE2E
:104F4400FFFFFFFFFFFFFFFFFFBFFFFFF79F4208C9
:104F54006B4DFFFFE6DBEF3D5ACB4A49EF3DFFBF08
:104F6400FF9FFFFFFFFFFFFFFFFFF7FFE7BEEFFF1E
:104F7400FFFFFFFFF79EFFFF7BCE18C2CE79FFFF36
:104F8400EF9DFFFFF7FEFFFFFFFFFFFFFFFFFFFFA8
:104F9400FFFFFFFFFFFFF7BEF7FF9D7629E91167CB
:104FA4006C53AE9D9E7E7DBC7E1F761F7E1F96BF7A
:104FB4008DFD9E1C7CB508E58493F7DFEF7FEF5FE2
:104FC400F77FEF5FF77FEF7FE77FE77FE77FE77F9D
:104FD400E77FEF5FEF3FF73FE79EE79EE79FE79F9F
:104FE400E77FE77FE77FE77FF7BFE71EEF7FE73ED7
:104FF400EFBFCEFE322B7495A65C963C8E1D759B3E
:105004007DFE8E7F861D965E9E1B3A8D1946A57683
:10501400FFFFFFFFFFFFFFFFFFFFFFFFFFFFFFFF9C
:10502400FFFFFFFFFFFFFFFFFFFFF7BEFFFF296545
:10503400738EFFFFEF3DFFFFEFBDF7FFFFFFFFFFA5
:10504400FFDFFFFFFFFFF7DFF7FFFFFF84303125AE
:10505400624A4926616740A351C820C35AABFFFF87
:10506400FFFFF77EFFDFFFFFF7DFFFFFFFFFF7FF25
:10507400E75CFFFFFFDFBD9620E383EFFFFFFFDF69
:10508400FFFFFFFFF7BEFFFFF7FFFFFFFFFFFFFF7D
:10509400FFFFFFFFFFFFFFFFEF9EF7FFCEBB5B4E5F
:1050A40011264B2F9E1C8E1D8E3E7E1E75BD8E3E80
:1050B4009E7E9E1CA5FB4AEE3229DF1DF7BFE73F0B
:1050C400EF5FEF5FEF5FEF7FE77FE77FE77FE77FEC
:1050D400E77FEF5FEF5FEF3FE77EE79EE77FE77FE6
:1050E400E77FE77FE77FE77FEF7FE73EF7BFE75F95
:1050F400EFDF953711684B7132EF54147D9A9E9F00
:105104008E5E85FD8E1D8DBA3AAD29E9AD97FFFF00
:10511400F79EF7BEFFFFFFFFFFFFFFFFFFFFFFFF4D
:10512400FFFFFFFFFFFFFFFFEF7DFFDFFFFFDEDB82
:105134002104A534FFFFFFFFF7FFEFFEF7BEFFFFDB
:10514400FFFFF7DFF7FFF7FFF7FF7C3020A24946A8
:1051540071C88A4BAACDA2ED61A76A6A3925628A11
:10516400FFDFFFFFFFFFFFFFFFFFEF7DF7BEFFFF46
:10517400FFFFFFFFB55520C35ACBFFFFF7BEFFFF6C
:10518400FFFFF7DFFFFFFFFFFFFFFFFFFFFFFFFF53
:10519400FFFFFFFFFFFFFFFFFFFFFFFFFFFFE75DD5
:1051A4006BAF196753709E1C963D8E3E967F7D9C17
:1051B400649743724B71745311269D35F7FFEF5F6B
:1051C400EF3FEF7FE73FEF9FE77FE77FE77FE77FF3
:1051D400E77FEF5FEF5FEF5FE77EE77FE77FE77FE4
:1051E400E77FE77FE77FE77FEF5FE73EF79FE77FB4
:1051F400E7BF42CD4B506433226D120C018A331049
:105204005435857AA65C5BD108E59D15FFFFFFFF49
:10521400FFBEFFFFFFFFFFFFFFFFFFFFFFFFFFFFDB
:10522400FFFFFFFFFFFFFFFFFFFFF7BEFFDFF79E5C
:105234009CB318C3A514F7DFEFFFF7FFFFFFFFBF11
:10524400FFBFFFFFF7FFDF7C638D18C261C8A32E89
:10525400BB4FFCF5BB0DCBD0BBB09B0D5145498674
:105264005249BDD6F7FFFFFFF7DFFFFFFFDFFFFF68
:10527400FFBF8BF039A662EBEF3CFFFFFFFFFFFFA0
:10528400F79EFFFFFFFFF7BFFFFFFFFFFFFFFFFFDB
:10529400FFDFFFFFFFFFFFFFFFFFFFFFFFFEFFFF3B
:1052A400FFFF84521106537095DA54143B52228F37
:1052B400018A2A8E6434A61B29E94ACCEF9FEF9F0A
:1052C400EF5FEF7FEF3FEF7FE77FE77FE77FE77FEA
:1052D400E77FEF5FEF5FEF5FEF7FEF7FE77FE77FD2
:1052E400E77FE77FE77FEF5FF79FE73FE75FEFBF8A
:1052F400C69C11899DFBAEBE859A859A4BF32ACF35
:1053040009AA19EA42EE19678452F7BEFFDEFF9D2F
:10531400FFFFF77DF77EFFFFFFFFFFFFFFFFFFFFAC
:10532400FFFFFFFFFFFFFFFFF75DFFFFFFFFFFFF33
:10533400FFFF9CF429454A8ABE38E79DFFFFFFDF43
:10534400FFFFEF5D84D2218529244966AB2EDBF271
:10535400D30ECB2EF4F4FD96F4F4BB4F9B2D59A63B
:1053640041A62144638D8CB2BE17D69AB576734D8F
:10537400396620C3738EFFFFFFFFF77DFFFFF7BE83
:10538400FFFFFFFFFFFFFFFFFFFFFFFFFFFFFFFF29
:10539400FFFFFFFFFFFFFFFFF77DFFFFFFFFEF7C36
:1053A400FFFFEF7D52CB21872A0A328D224D439293
:1053B40074F895FC9E3C9E3C5BB11967BE5BEFBFE5
:1053C400EF5FEF7FEF5FEF5FE77FE77FE77FE77FE9
:1053D400E77FEF5FEF5FEF5FEF5FEF7FE77FE77FF1
:1053E400E77FE77FE77FEF7FE73EE75FE77FF7FF52
:1053F4008D3719CA95DB95FB8DDC9E9E9E7D95FBB2
:105404008D78537021C83A2931866B4CA4D2E6DAE0
:10541400FFFFFFFFFFFFF7BFFFFFFFFFFFFFFFFFE0
:10542400FFFFFFFFFFFFFFFFFFFFFFFFF7BFFFDFF0
:10543400FFDFF7BFDEFC632C29863187522A628B9B
:1054440039A718C33A288C5062087987DB30EB30CF
:10545400E30EDBAFFEDAFF7DFE9BD34FDC7382AA43
:105464002081842F428929C618E318C3312549C8ED
:105474007B8EDEBAFFFFF7FFFFFFFFFFFFBFF79E44
:10548400FFFFF7BFFFFFFFFFFFFFFFFFFFFFFFFF70
:10549400FFFFFFFFFFFFFFBFFFFFFFBEF77DB595D7
:1054A400630B39C63186424A29C85B91959995DBCD
:1054B400A69F963D85BCA67E853719688494EFDF48
:1054C400E75FEF7FEF7FEF7FEF7FE77FE77FE77FA8
:1054D400E77FEF5FEF5FEF5FEF5FEF7FEF7FE77FE8
:1054E400E77FE77FEF5FEF7FE75FF7BFDF5FDF7F98
:1054F4005BD243709E3C8E1C8E1D85FC8E1C95FBDE
:10550400A63B5BB029A7C6189CD34A0731643985EA
:1055140052899CF3D6DBFFFFFFFFFFFFFFFFFFFF76
:10552400FFFFFFFFFFFFFFFFFFDFFFFFFFFFFFFFA7
:10553400FFFFFFFFEF9EFFFFDEFCBDB794328BF150
:10554400AD35D6BAEF7DF75D48C4B2CDFB71FAEF45
:10555400FB2FEBB0FEB9FF7CFE7BF3D1CB8FA32DE9
:105564004165BDD6FFFFD73BD6BAC5F7CE18F73D88
:10557400FFFFFFFFF7FFFFFFFFFFFFBFFFFFFFFF7F
:10558400EF5DFFFFFFFFFFDFFFFFFFFFFFDFFFDF39
:10559400FFFFFFFFFFBFEF7DB59673AD29442923BD
:1055A4005289840FC617EF5D52CC1967A61A9DFB6A
:1055B4008DDB8E1D85DD963E9DFB2A0B4B0EEFDFAA
:1055C400E73EEF7FEF7FEF9FEF7FE77FE77FE77FA8
:1055D400E77FE77FEF5FEF7FEF5FEF7FEF7FE77FAF
:1055E400E77FE77FEF7FEF7FEF7FE75FE79FD73FBF
:1055F400222B74F78E1C8E1D861E85FD8E1DAEBE5D
:1056040064121946A576FFFFFFFFFFBEDEBA9CB207
:10561400528A296631C84A8B9CF4DEFBF7DFFFFF10
:10562400FFFFFFFFFFFFFFBFFFDFFFFFFFFFF7BF2E
:10563400FFFFFFFFFFFFF7FFFFFFFFDFFFDFFFDFDE
:10564400FF9FFFFFF7DFC5B64063D350FAF0FA8E31
:10565400FB0FF390CBEEFD95FBD1F350CB2FC3D0D2
:1056640041249CB1F7FEFFFFF7DEFFFFFFFFFFDFE2
:10567400FFFFFFDFF7FEF7FFFFFFFFFFFFDEFFFF88
:10568400FFDFFFFFFFFFF7BEFFFFFFDFFFFFFFFFAF
:10569400EF5EB5966B4D39C721044A698C50C63804
:1056A400F77DFFFFFFFFFFFFDF3D29E82A2BA65C04
:1056B400963D85FD861E8E3E9E3C64331147C6BCD6
:1056C400EFDFEF9FE75EEF5FEF7FE77FE77FE77F47
:1056D400E77FE77FEF7FEF7FEF5FEF5FEF7FEF7FA6
:1056E400E77FE77FEF7FEF7FEF7FE75FEFBFBE9D51
:1056F400222C7D598E1D861D861E863E8DFC95FBB3
:10570400328C530DE73DFFFFFFFFFFDEFFBEFFFFBF
:10571400FFDFCEBB8C9352EC212539E7630C9CF35D
:10572400DEDBFFBFFFFFFFFFFFFFFFFFFFFFFFFF0A
:10573400FFFFF7FFF7DFF7FFF7FFF7FFFFFFFFDFDD
:10574400FFBFFFFFFFFFD65848E4AA8CF330FB925B
:10575400F26DE2ACEBF0DB8EFBB1E2CEE3F1AB4EEB
:105764003061AD13FFFFFFFFF7FFFFFFFFFFFFBE39
:10577400FFFFFFFFFFFFFFFFFFFFF77DFFBEEF3CD3
:10578400F75DEF3CFFFFFFFFFFFFEF1CB576736E85
:1057940039A721254A6A8410D69AE71CF7BEFFFF71
:1057A400FFFFFFFFFFDEF7BEF7DF9D3521A95BF3A7
:1057B4009E3D8E1D863F7DFE963D74B61168A5B84C
:1057C400EFBFEF7EEF7FEF5FEF5FEF5FE75FE77FB6
:1057D400E77FE77FE77FEF7FEF5FEF5FEF7FE77FB5
:1057E400E77FE77FEF7FEF7FEF9FDF5EEFFF9D981F
:1057F400224C8DDB8E3D861E861E861E9E7E645444
:105804001167B5F8FFFFFFFFFFFFFFFFFFFFFFFF7B
:10581400FFFFFFFFFFFFFFFFCE7A947152693165EE
:1058240041C762CB9C92E6BBFF7EFFBFFFDFFFFF59
:10583400FFFFFFFFF7DFF7FFF7FFEFFFFFFFFFFFBC
:10584400FFDFFFFFFFFFE71B39258A8BD34FEB0FE9
:10585400FB30FB0FF30EEB0EEB50CA8DDBF18A4AE3
:105864005186D658FFFFF7FFF7FFFFFFFFFFFFDF6B
:10587400FFFFFFFFFFFFF7BEF75DF71CFF9EE6BAD1
:10588400FF5DFF3DCDF7A4B36AEC41C731254A293A
:105894008C31C618EF5EFFFFFFFFFFFFFFFFFFFF26
:1058A400FFFFFFFFFFFFFFFFFFFFF7FF5B4E1168E6
:1058B4008DBB963E861E85FE963D857911A974534F
:1058C400EFBFE75EF79FEF7FEF5FEF5FE75FE77F95
:1058D400E77FE77FE77FE77EEF5FEF7FE77FE77FA5
:1058E400E77FE77FEF7FEF7FEF9FDF5EF7FF745483
:1058F4002A8E9E5E8E3E861E863F7DDCA69E2A6D87
:105904003A8BFFFFFFFFFFDFFFDEFFDFFFFFFFFF3D
:10591400FFFFFFFFFFFFFFDFFFFFFFDFF73CCDD7F8
:105924009C315A4939044186E69AFF5DFF7EF75C53
:10593400FF9EFFFFFFFFFFFFEFFFEFFFFFFFFFFFF4
:10594400FFDFFFFFF7FFEFDE734C38C3B34EEBF11D
:10595400EB0FF2EFFB0FF350D2EEE432C3D048A3C7
:1059640072ABFFDEFFFFFFFFF7FFF7FFFFFFFFFF55
:10597400FFDFFFBEF77DEEFBF6DBEE9AEE79EE7904
:10598400EE79DDF8622930C351E8836EC576EF1CE9
:10599400FFBFFFDFFFFFFFFFF7BFF7DFF7DFF7DF33
:1059A400F7DFFFFFFFFFFFFFFFFFFFFFC69B11476E
:1059B4005BF3963D861E8E5F8E1D961C224C42ED37
:1059C400E79FE75EF79FEF5FEF5FEF5FE75FE75FFC
:1059D400E77FE77FE77EE77EEF7FE77FE77FE77F8D
:1059E400E77FE77FEF7FEF7FEF9FDF5EEFFF5350AF
:1059F4004330A69F8E3E861E863E8E3D7D380948E6
:105A04009D76FFFFFFBEFFFFFFFFFFFFF7DFF7BF3E
:105A1400FFDFFFFFFFFFFFBEE67AEEBBF6FCFEFCF6
:105A2400FEFCF69AD576C514EE7AFEFCF6FCF6FB7F
:105A3400FF5DFFBEFFDFFFFFF7FFEFFFFFFFFFFF8D
:105A4400FFFFFFFFF7FFF7FFCEB931454945A30D2F
:105A5400D3D1E390F3B1E370DC129AED592551668A
:105A6400CDD7FFFFFFDEFFFFFFFFF7DEFFFFFFFFE6
:105A7400FF9EFF1CFEDBF69AFEFBFEBBFEBBFEFC9C
:105A8400FEFCF639A3D0C4F4F67AFEBCF6DCEE9B39
:105A9400EEBBF73DFFBFFFDFFFFFFFFFFFFFFFFF91
:105AA400FFFFFFFFFFDFFFDFFFDEFFDFFFFF6BF125
:105AB40019CA859A965E8E3E8DFD9E5E3B0F21E946
:105AC400D73DE77EEF9EEF5EEF5FEF5FEF5FE75F4F
:105AD400E77FE77FE77EE79EE77FE77FE77FE77F74
:105AE400E77FE77FE77FEF7FEF7FE75FEFDF3AAEA8
:105AF40053D39E7F8E1E861E861D9E7E32EE220A04
:105B0400EFDFF79EFFFFFFFFF77DFFDFFFFFFFFFE4
:105B1400FFFFFFDFFF9DFF9DFEFCFF1CEE59EE39EA
:105B2400FEBBFEDCFEFDFEBBFEBBFEBBF69BFEDB4E
:105B3400FF1CF71BFF5DFFFFFFFFFFFFFFFFFFFFE2
:105B4400FFFFFFFFFFFFFFFFFFFFBDD649E739045B
:105B540072288A29A2AB922A71E838A34145C596D6
:105B6400FFDFFFDFF7BEFFFFFFFFF7DEFFFFFFDF13
:105B7400FF1CFEBBFE9BFE3AD4F4FDF8FE7AE5560C
:105B8400FEBBFE7BF5F8FEFCFE7AFE9BFE9BF69BBD
:105B9400F69BF6DCFF3DFF9EFFBEFFDEFFFFFFFF2F
:105BA400FFFFFFFFFFFFFFFFFFDEFFFFFFFFD6FC4E
:105BB40011676413A67E85DC8DFD9E5E5BF3116820
:105BC400C69BEFBEEF7EEF5EEF5FEF5FEF5FE75FD9
:105BD400E77FE77FE77EE79EE77FE77FE77FE77F73
:105BE400E77FE77FE77FEF7FEF7FE75FE79F326C39
:105BF4006C76963E85FE861E8E1D8DFB1189743251
:105C0400FFFFF7BEFFFEFFFEFFFFFFFFFFDFFFDF2B
:105C1400FFFFFFBEF71BEE99EE59FEBBE5D8FE9AD7
:105C2400FE9BE597FE39F619EDB7FE5AFE7AEE397A
:105C3400EE59F6BAFF1CFFBEFFBEFFFFFFFFFFDFFA
:105C4400FFFFFFFFFFFFFFFFFFFFFFFFD6B9840F3A
:105C5400314431234185394428E383CED679FFFF8B
:105C6400FFDFF7BEFFFFFFFFFFFFF7FFFFFFFFBEF2
:105C7400FEBBFE9BFE5BF556DCB4FE5AFDF8D493E6
:105C8400FE3AFE19ED36DD15FEBCEDB8D536EDF95C
:105C9400FE9BFEDCFF5EFFDFFFFFFFFFFFFFFFFF5A
:105CA400FFFFFFFFFFFFFFFFFFFEFFFEF79DFFFF6C
:105CB4005B6F2A4C95DB8DFD8E1E961D74D60947AD
:105CC400A5D8F7DFEF5EEF5EEF5FEF5FEF5FE75FB3
:105CD400E77FE77FE79EE79DE77FE77FE77FE77F53
:105CE400E77FE77FE77FEF7FEF7FE75FDF5F2A2CC8
:105CF4007CD8961D85FD8E1E9E5D74D619A9B61995
:105D0400FFFFFFFFFFBDFFDEFFDEFFDFFFFFFFFF43
:105D1400FFFFFFBEFF3BF6B9FEBAFE5AC4B3F5F867
:105D2400FE19CC93FDF9FE9BC432FE19FE9ADD5692
:105D3400D555FE9AFF5DFF3DFF9EFFDFFFFFFFDFAE
:105D4400FFFFFFFFFFDFFFFFFFFFF7BEFFFFEFBD1A
:105D5400EFBDBE5729A5638CE77CFFFFF7DEF7DEB6
:105D6400FFFFFFFFF7DFFFFFF7FFFFFFFFFFFF7EF0
:105D7400FE9BFEBCFE1AD453FD97FE5ADC93ED1530
:105D8400FE5AFDD8DCB4FDF9FE5AD4F5D4F5FE7BF9
:105D9400FF3DF67BEE9BFFBEFFFFFFFEFFFFFFFF15
:105DA400FFFFFFFFFFFFFFFFFFDEFFFEFFFFFFDF41
:105DB400ADD809067CF7A65D963E8DFC7D38094872
:105DC4009556F7FFE75EF77FEF5FEF5FEF5FE75F03
:105DD400E77FE77FE77EE79EE77FE77FE77FE77F71
:105DE400E77FE77FE77FEF7FEF7FEF9FCEDD29EA55
:105DF4008D389E1C8DFC8DFC9E1B4B4F21C9EFBF23
:105E0400FFFFFFFFFFDEFFFFFFFFFFDFFFDFFFDF1F
:105E1400FFDEFF7DF71BEEB9F69AD535D535FEBB0F
:105E2400CCB3DD15FE9BE515DCF4FE9BF5B8CCB3D5
:105E3400F618FEFCFEBBFF5DFFDFFFFFFFFFFFFF69
:105E4400FFFFFFFFFFFFFFFFFFFFFFDFFFFFFFFF7E
:105E5400FFFFF7BE3A287BEFFFFFFFFFFFFFFFFFC7
:105E6400FFFFFFFFFFFFFFFFFFFFFFFFFFBFFF7EFF
:105E7400FF1DF67BE598DD16FE9BF5B7E535FDF8CD
:105E8400FE39ED56E536FE9BE577DD35E5D8F69B24
:105E9400F6BBEE9BF71CFF9EFFDEFFDEFFFEFFFF5F
:105EA400FFFFFFFFFFFFFFFFFFFFFFBEFFDFFFFF5F
:105EB400D6FC2187745395BA963D85DC859A118961
:105EC4007453F7FFEF7FEF5FEF5FEF5FE77FE77FED
:105ED400E77FE77FE77FE77FE77FE77FE77FE77F8E
:105EE400E77FE77FEF7FEF7FEF5FEF7FCEBC21C9D6
:105EF4009599A65D963D9E5DA63B534E5B4EF7FF7E
:105F0400FFFFFFDFFFFFFFFFFFFFFFFFFFFFFFFFBD
:105F1400FFFFFFDEFF7DFF3CFF1CE5D7E5B7FF3D3C
:105F2400F5F9F5F8FEBCD4D4ED97FE7BF5D8DD5534
:105F3400FE5AFEDBFEBBFF7EFFFFFFFFFFFFFFFFFE
:105F4400FFFFFFFFFFFFFFFFFFFFFFDFFFFFFFFF7D
:105F5400FFFFF79E42087BCFFFFFFFFFFFFFFFFF1E
:105F6400FFFFFFFFFFFFFFFFFFFFFFDFFFBFFF7E1E
:105F7400FF1DFEBCF67BF65AFEBBFE39F618FE7A10
:105F8400FEBBFE59FE19FE9BFEBBFE7BFEDCFF7EC4
:105F9400FF5DFF5DFFBEFFFFFFFFFFFEFFFFFFFF93
:105FA400FFFFFFFFFFFFFFFFFFFFFFDEFFFFF7BF66
:105FB400FFFF5B2D29E9B67C963D8E3D95FC19EBE0
:105FC4006C13EFDFE73EE73EEF7FEF7FE77FE77F8E
:105FD400E77FE77FEF7FEF7FE77FE77FE77FE77F7D
:105FE400E77FE77FEF7FEF7FEF5FEF7FD6FE21C98B
:105FF40095997D184BF44BB3432F324A428B73CFA0
:1060040084319491840F8C508C308430843084316A
:106014008C518C308BEF8BAE93EF8B4D8B6EA3F04A
:10602400934EA3D0F639F639FE7AFE9BF63AEE3952
:10603400FEDCFEFCFEFCFFBFFFFFFFFFFFFFFFFFD8
:10604400FFFFFFFFFFFFFFFFFFFFFFFFFFFFFFFF5C
:10605400FFFFF79E39E773AEFFFFFFFFFFFFFFFF70
:10606400FFFFFFFFFFFFFFFFFFFFFFFFFFDFFF9EBD
:10607400FF1DFEDCFEBCFEBBFEBBFEBAFEBAFEBBD1
:10608400FEBAFEBBFE7AE5D8B472AC51AC72ACB3C6
:106094009C929C92A4F3A513A513A513A513A51371
:1060A4009D149D14A514A513A513AD549CD39CF362
:1060B400A55652EC31E96C547D7A8E1D8DDB19EBBB
:1060C40063B1EFDFE73EEF7FEF5FEF7FE77FE77FCF
:1060D400E77FE77FEF7FEF7FE77FE77FE77FE77F7C
:1060E400E77FE77FEF7FEF5FEF9FEF7FDF3E21A941
:1060F4008D385C551A8F1A4D326C21A8532D3A08ED
:1061040042284A4839A641E739E739E739E839E806
:1061140041E741E741C641A649E749C751E84986F5
:1061240049666208CD35FEBBFEDCFEBBF69BFEDB9A
:10613400FF1CFF1CFF5DFFDFFFFFFFFFFFFFFFFFF3
:10614400FFFFFFFFFFFFFFFFFFFFFFFFFFFFFFFF5B
:10615400FFFFF79E39E76B6DFFFFFFFFFFFFFFFFB8
:10616400FFFFFFFFFFFFFFFFFFFFFFFFFFDFFFDF7B
:10617400FF7EFF1DF6BCF69BF6BAF6BAFEDBF6BA56
:10618400EE79FEBBF69ACD7641253925416639660E
:106194003145318639E739C6316531652965298547
:1061A400298629862986296529243145318541E8AE
:1061B40031A74A6B29A821CA75398DFC8DBB19EB0F
:1061C4005B70F7FFE75FF7BFEF5FEF7FE77FE77F86
:1061D400E77FE77FE77FEF7FEF7FEF7FE77FE77F73
:1061E400E77FE77FEF7FEF5FE73EDF1ED71E21EA01
:1061F4009DFBA69E8DFC9E7E74731987CEBBF7DF34
:10620400EF5CEF5CFFFFFFDEF79EEF9EEF9EEF9EDD
:10621400F79EF79EF77DF77DE6BADE9ADE9AD638CA
:10622400DE7ADE38FF3DFF5DF6DCF6DBF6DCF71CDC
:10623400F73DFF7DFFBFFFDFFFFFFFFFFFFFFFFF16
:10624400FFFFFFFFFFFFFFFFFFFFFFFFFFFFFFDF7A
:10625400FFFFF7BE39E76B6DFFFFFFFFFFFFFFFF97
:10626400FFFFFFFFFFFFFFFFFFFFFFDFFFFFFFDF7A
:10627400FFDFFFBFFF7EFF3DF73CEEFBF71BF71B85
:10628400EEDBFF3CFF5DE69AD618D639DE7ADE9A5D
:10629400D69ADEDBDF1CD6DBE73BE71BE73CE73CBB
:1062A400DF3CDF3CE73CE71CF77DDEDAF77DE6FB0D
:1062B400DEDBDEFC29A763F28DDB967E95DB21EB2A
:1062C4005B91F7FFE75FEF9FEF5FEF7FE77FE77F8C
:1062D400E77FE77FE77FE77FEF7FEF7FEF7FE77F72
:1062E400E77FEF7FEF5FEF5FF7BFE77FDF3F21CA15
:1062F40074B6961C7D9B9E5D63F11966EF9EFFFF4D
:10630400FFFFFFDEFFFFFFDEFFFFFFFFFFFFFFFFDB
:10631400FFFFFFFFFFDFFFDFFFFFF7BEF79EF77D05
:10632400FFBFF75DEF1CE69AF73DFF5DFF7EF77D4B
:10633400FF9EFFFFFFFFFFFFFFFFFFFFFFFFFFFFCA
:10634400FFFFFFFFFFFFFFFFFFFFFFFFFFFFFFDF79
:10635400FFFFF7BE39E76B4DFFFFFFFFFFFFFFFFB6
:10636400FFFFFFFFFFFFFFFFFFFFFFFFFFDFFFFF59
:10637400FFDFFFDFFFDFFFBFFFFFFF9DFF9DFF9EEE
:10638400FF9EFF9EFFBEFF9EFF9EFFBEFFFFFFFF1F
:10639400FFFFFFFFFFFFFFFFFFFFFFFFFFFFFFFF09
:1063A400F7FFF7FFFFFFFFFFFFDEFFFFFFDEFFFF4B
:1063B400FFFFF79F216663D19E3D965E95DB19CA68
:1063C40063B1F7FFE75EEF7FEF7FEF7FE77FE77F64
:1063D400E77FE77FE77FE77FEF5FEF7FEF7FEF7F89
:1063E400EF7FEF7FEF5FEF7FE75FE75FE79F3A8D38
:1063F4006C96A69F8E1DA6BF4B0E428BF7FFEF9E99
:10640400FFFFFFFFFFDEFFFFFFFFFFFFFFFFFFFFB9
:10641400FFFFFFFFFFDFFFFFFFDFF7DFF7BFFFBF78
:10642400F79EFFFFFFDFFFFFFFBFFFFFFFDFFFDF81
:10643400FFFFFFFFFFFFFFFFFFFFFFFFFFFFFFFF68
:10644400FFFFFFFFFFFFFFFFFFFFFFFFFFFFFFDF78
:10645400FFFFFFDF42086B4DFFFFFFFFFFFFFFFF62
:10646400FFFFFFFFFFFFFFFFFFFFFFFFFFFFFFDF58
:10647400FFDFFFDFFFDFFFDFFFFFFFFFFFFFFFFFA8
:10648400FFFFFFDFFFBEFFFFFFFFFFBFFFFFFFFFB9
:10649400FFFFFFFFFFFFF7FFFFFFFFFFFFFFFFFF10
:1064A400FFFFFFFFFFFFFFFFFFDEFFFFFFBDFFFF5B
:1064B400FFFFEF9E4A8B4AEE961C8DFC8DBA11AA03
:1064C4006BF2EFDFE75FEF7FEF7FEF7FE77FE77F41
:1064D400E77FE77FE77FE77FEF7FEF7FEF7FEF7F68
:1064E400EF7FEF7FEF5FEF7FE75EE75FEFDF3AAECF
:1064F4005BF39E5E7DBC963D4B2F3A29FFFFFFFF69
:10650400FFFFFFFEFFFFFFFFFFFFFFFFFFFFFFFF98
:10651400FFFFFFFFFFFFFFFFFFFFFFFFFFFFFFFF87
:10652400F7BEFFFFFFDFFFFFFFFFFFFFFFFFFFFFE0
:10653400FFFFFFFFF7BEFFFFFFFFFFFFFFFFFFFFB0
:10654400FFFFFFFFFFFFFFFFFFFFFFFFFFFFFFDF77
:10655400FFFFFFDF42086B4DFFFFFFFFFFFFFFFF61
:10656400FFFFFFFFFFFFFFFFF7FFFFFFFFFFFFFF3F
:10657400FFFFFFFFFFFFFFFFF7DEFFFFFFFFFFFF50
:10658400FFFFFFFFFFDFFFFFFFFFFFDFFFDFFFFF77
:10659400FFFFF7DFFFFFFFFFFFFFFFFFFFFFFFFF2F
:1065A400FFFFFFFFFFFFFFFFFFDFFFDEFFFFFFDE59
:1065B400FFFFFFFF3A094B0E9E3C8DFC95DB19CA89
:1065C4007453EFDFEF5FEF7FEF5FEF5FEF7FE77F06
:1065D400E77FE77FE77FE77FEF7FEF7FEF7FEF7F67
:1065E400EF7FEF7FEF5FEF7FEF9FDF3EF7FF5371AA
:1065F4004B719E7E85DC9E5E42AD428AFFFFFFFFAB
:10660400FFFFFFFFFFFFFFFFFFDFFFFFFFFFFFFFB6
:10661400FFFFFFFFFFFFFFFFFFFFFFDFFFFFFFFFA6
:10662400FFDFFFDFFFFFFFDFFFFFFFFFFFFFFFFFD6
:10663400FFFFFFFFFFFFFFFFFFFFFFFFFFFFFFFF66
:10664400FFFFFFFFFFFFFFFFFFFFFFFFFFFFFFFF56
:10665400FFFFFFDF4A496B4DFFFFFFFFFFFFFFFF17
:10666400FFFFFFFFFFFFFFFFFFFFFFFFFFFFFFFF36
:10667400FFFFFFFFFFFFFFFFFFFFFFFFFFFFFFDF46
:10668400F79EFFFFFFFFFFFFFFDFFFDFFFFFFFFFBF
:10669400FFFFFFFFFFFFFFFFFFFFFFFFFFFFFFFF06
:1066A400FFFFFFFFFFFFFFFFFFFFFFFFFFFFFFDE17
:1066B400FFFFFFDF4AAC3A8C9E3C8DFC8579118943
:1066C4008CF6EF9FF79FEF3EEF5FEF5FEF7FE77F83
:1066D400E77FE77FE77FE77FEF5FEF7FEF7FEF7F86
:1066E400EF7FEF7FEF5FEF7FEF7FE73EF7FF6C33E6
:1066F4003AEF9E5D85FD9E5D42CD426AFFFFFFFF3E
:10670400FFFFFFFFFFFFFFFFFFFFFFFFFFFFF7FF9D
:10671400FFFFFFFFFFDFFFDFFFFFFFDFFFFFFFFFE5
:10672400FFFFFFFFFFFFFFDFFFFFFFFFFFFFFFFF95
:10673400FFFFFFFFFFFFFFFFFFFFFFFFFFFFFFFF65
:10674400FFFFFFFFFFFFFFFFFFFFFFFFFFFFFFFF55
:10675400FFFFFFDF4A49632CFFFFFFFFFFFFFFFF3F
:10676400FFFFFFFFFFFFFFFFFFFFFFFFFFFFFFFF35
:10677400FFFFFFFFFFFFFFFFFFFFF7BEF7BEFFFFB7
:10678400FFFFFFFFF79EFFBFFFFFFFFFFFDFFFFFDE
:10679400FFFFFFFFFFDFF7BEFFFFFFFFFFFFFFFF6E
:1067A400FFFFFFFFFFFFFFFFFFFFFFFFFFFFFFDF15
:1067B400FFFFFFDF4A8B42CD9E1B961C7D1711689D
:1067C4009D77EFBFF79FEF5EEF5FEF5FEF7FE77FB0
:1067D400E77FE77FE77FE77FEF7FEF7FEF7FE77F6D
:1067E400E77FEF7FEF5FEF5FE75FE77FEFDF9578AE
:1067F400224C961C8E3D963D4AEE3A4AFFFFFFDF3F
:10680400FFFFFFFFFFFFFFFFFFFFFFFFFFFFF7FF9C
:10681400FFFFFFFFFFFFFFFFFFFFFFDFFFFFFFFFA4
:10682400FFBFF75DF79EFFFFFFFFFFFFFFFFFFFFC7
:10683400FFFFFFFFFFFFFFFFFFFFFFFFFFFFFFFF64
:10684400FFFFFFFFFFFFFFFFFFFFFFFFFFFFFFFF54
:10685400FFFFFFDF4A49632CFFFFFFFFFFFFFFFF3E
:10686400FFFFFFFFFFFFFFFFFFFFFFFFFFFFFFFF34
:10687400FFFFFFFFFFFFFFFFFFDFFFFFFFFFFFDF64
:10688400FFDFFFDFFFFFFFFFFFBFFFDFFFFFFFFFB4
:10689400FFFFFFFFFFFFFFFFFFFFFFFFFFFFFFFF04
:1068A400FFFFFFFFFFFFFFFFFFFFFFFFFFFFFFFFF4
:1068B400FFFFF7DF3A294B2E9E1B9E3C6C75114857
:1068C400BE3AF7BFEF7FEF5EEF5FEF5FEF7FE77FEB
:1068D400E77FE77FE77FE77FEF7FEF7FE77FE77F74
:1068E400E77FE77FEF7FEF5FEF5FEF9FE7BFBE9D3F
:1068F4001A0B8579963D9E3D4B2F3A09FFFFFFDF2A
:10690400FFFFFFDEFFFFFFFFFFDFFFFFFFFFFFFFD4
:10691400FFFFFFFFFFFFFFFFFFFFFFDFFFDFFFFFC3
:10692400FFFFFFFFFFDFFFDFFFFFFFFFFFFFFFFFB3
:10693400FFFFFFFFFFFFFFFFFFFFFFFFFFFFFFFF63
:10694400FFFFFFFFFFFFFFFFFFFFFFFFFFFFFFFF53
:10695400FFFFFFFF4A69630CFFFFFFFFFFFFFFFF1D
:10696400FFFFFFFFFFFFFFFFFFFFFFFFFFFFFFFF33
:10697400FFFFFFFFFFFFFFFFFFBEFFFFFFFFFFBFA4
:10698400FFFFFFFFFFDFEF5DFFFFFFFFFFFFFFDF05
:10699400FFDFFFDFFFDFFFDFFFFFFFFFFFFFFFFF83
:1069A400FFFFFFFFFFFFFFFFFFFFFFFFFFFFFFFFF3
:1069B400FFDFF7BF31E8536F9E3C9E3C53B219880A
